{"abi":[{"type":"function","name":"approveAndDeposit","inputs":[{"name":"token","type":"address","internalType":"address"},{"name":"multiSigAddress","type":"address","internalType":"address"},{"name":"txHash","type":"bytes32","internalType":"bytes32"},{"name":"depositAmount","type":"uint256","internalType":"uint256"}],"outputs":[],"stateMutability":"nonpayable"},{"type":"function","name":"approveRecovery","inputs":[{"name":"tokens","type":"address[]","internalType":"address[]"},{"name":"spender","type":"address","internalType":"address"}],"outputs":[],"stateMutability":"nonpayable"},{"type":"function","name":"approveToken","inputs":[{"name":"token","type":"address","internalType":"address"},{"name":"spender","type":"address","internalType":"address"},{"name":"amount","type":"uint256","internalType":"uint256"}],"outputs":[{"name":"","type":"bool","internalType":"bool"}],"stateMutability":"nonpayable"},{"type":"function","name":"depositTokenToMultiSig","inputs":[{"name":"multiSigAddress","type":"address","internalType":"address"},{"name":"txHash","type":"bytes32","internalType":"bytes32"},{"name":"token","type":"address","internalType":"address"},{"name":"amount","type":"uint256","internalType":"uint256"}],"outputs":[],"stateMutability":"nonpayable"},{"type":"function","name":"getAllowance","inputs":[{"name":"token","type":"address","internalType":"address"},{"name":"spender","type":"address","internalType":"address"}],"outputs":[{"name":"","type":"uint256","internalType":"uint256"}],"stateMutability":"view"},{"type":"function","name":"getTokenBalance","inputs":[{"name":"token","type":"address","internalType":"address"}],"outputs":[{"name":"","type":"uint256","internalType":"uint256"}],"stateMutability":"view"}],"bytecode":{"object":"0x6080604052348015600e575f5ffd5b50610fe08061001c5f395ff3fe608060405234801561000f575f5ffd5b5060043610610060575f3560e01c80630af4187d146100645780633aecd0e31461009457806378b4fc61146100c4578063d47c5983146100e0578063da3e3397146100fc578063de2c19641461012c575b5f5ffd5b61007e600480360381019061007991906107b3565b610148565b60405161008b9190610809565b60405180910390f35b6100ae60048036038101906100a99190610822565b6101cb565b6040516100bb9190610809565b60405180910390f35b6100de60048036038101906100d9919061099d565b61024b565b005b6100fa60048036038101906100f59190610a54565b610323565b005b61011660048036038101906101119190610ab8565b610413565b6040516101239190610b22565b60405180910390f35b61014660048036038101906101419190610b3b565b6105ba565b005b5f8273ffffffffffffffffffffffffffffffffffffffff1663dd62ed3e30846040518363ffffffff1660e01b8152600401610184929190610bae565b602060405180830381865afa15801561019f573d5f5f3e3d5ffd5b505050506040513d601f19601f820116820180604052508101906101c39190610be9565b905092915050565b5f8173ffffffffffffffffffffffffffffffffffffffff166370a08231306040518263ffffffff1660e01b81526004016102059190610c14565b602060405180830381865afa158015610220573d5f5f3e3d5ffd5b505050506040513d601f19601f820116820180604052508101906102449190610be9565b9050919050565b5f5f90505b825181101561031e573073ffffffffffffffffffffffffffffffffffffffff1663da3e339784838151811061028857610287610c2d565b5b6020026020010151847fffffffffffffffffffffffffffffffffffffffffffffffffffffffffffffffff6040518463ffffffff1660e01b81526004016102d093929190610c5a565b6020604051808303815f875af11580156102ec573d5f5f3e3d5ffd5b505050506040513d601f19601f820116820180604052508101906103109190610cb9565b508080600101915050610250565b505050565b3073ffffffffffffffffffffffffffffffffffffffff1663da3e33978585846040518463ffffffff1660e01b815260040161036093929190610c5a565b6020604051808303815f875af115801561037c573d5f5f3e3d5ffd5b505050506040513d601f19601f820116820180604052508101906103a09190610cb9565b503073ffffffffffffffffffffffffffffffffffffffff1663de2c1964848487856040518563ffffffff1660e01b81526004016103e09493929190610cf3565b5f604051808303815f87803b1580156103f7575f5ffd5b505af1158015610409573d5f5f3e3d5ffd5b5050505050505050565b5f5f73ffffffffffffffffffffffffffffffffffffffff168473ffffffffffffffffffffffffffffffffffffffff1603610482576040517f08c379a000000000000000000000000000000000000000000000000000000000815260040161047990610d90565b60405180910390fd5b5f73ffffffffffffffffffffffffffffffffffffffff168373ffffffffffffffffffffffffffffffffffffffff16036104f0576040517f08c379a00000000000000000000000000000000000000000000000000000000081526004016104e790610df8565b60405180910390fd5b5f8473ffffffffffffffffffffffffffffffffffffffff1663095ea7b385856040518363ffffffff1660e01b815260040161052c929190610e16565b6020604051808303815f875af1158015610548573d5f5f3e3d5ffd5b505050506040513d601f19601f8201168201806040525081019061056c9190610cb9565b9050806105ae576040517f08c379a00000000000000000000000000000000000000000000000000000000081526004016105a590610e87565b60405180910390fd5b60019150509392505050565b5f73ffffffffffffffffffffffffffffffffffffffff168473ffffffffffffffffffffffffffffffffffffffff1603610628576040517f08c379a000000000000000000000000000000000000000000000000000000000815260040161061f90610eef565b60405180910390fd5b5f73ffffffffffffffffffffffffffffffffffffffff168273ffffffffffffffffffffffffffffffffffffffff1603610696576040517f08c379a000000000000000000000000000000000000000000000000000000000815260040161068d90610d90565b60405180910390fd5b5f81116106d8576040517f08c379a00000000000000000000000000000000000000000000000000000000081526004016106cf90610f57565b60405180910390fd5b8373ffffffffffffffffffffffffffffffffffffffff1663d954863c8484846040518463ffffffff1660e01b815260040161071593929190610f75565b5f604051808303815f87803b15801561072c575f5ffd5b505af115801561073e573d5f5f3e3d5ffd5b5050505050505050565b5f604051905090565b5f5ffd5b5f5ffd5b5f73ffffffffffffffffffffffffffffffffffffffff82169050919050565b5f61078282610759565b9050919050565b61079281610778565b811461079c575f5ffd5b50565b5f813590506107ad81610789565b92915050565b5f5f604083850312156107c9576107c8610751565b5b5f6107d68582860161079f565b92505060206107e78582860161079f565b9150509250929050565b5f819050919050565b610803816107f1565b82525050565b5f60208201905061081c5f8301846107fa565b92915050565b5f6020828403121561083757610836610751565b5b5f6108448482850161079f565b91505092915050565b5f5ffd5b5f601f19601f8301169050919050565b7f4e487b71000000000000000000000000000000000000000000000000000000005f52604160045260245ffd5b61089782610851565b810181811067ffffffffffffffff821117156108b6576108b5610861565b5b80604052505050565b5f6108c8610748565b90506108d4828261088e565b919050565b5f67ffffffffffffffff8211156108f3576108f2610861565b5b602082029050602081019050919050565b5f5ffd5b5f61091a610915846108d9565b6108bf565b9050808382526020820190506020840283018581111561093d5761093c610904565b5b835b818110156109665780610952888261079f565b84526020840193505060208101905061093f565b5050509392505050565b5f82601f8301126109845761098361084d565b5b8135610994848260208601610908565b91505092915050565b5f5f604083850312156109b3576109b2610751565b5b5f83013567ffffffffffffffff8111156109d0576109cf610755565b5b6109dc85828601610970565b92505060206109ed8582860161079f565b9150509250929050565b5f819050919050565b610a09816109f7565b8114610a13575f5ffd5b50565b5f81359050610a2481610a00565b92915050565b610a33816107f1565b8114610a3d575f5ffd5b50565b5f81359050610a4e81610a2a565b92915050565b5f5f5f5f60808587031215610a6c57610a6b610751565b5b5f610a798782880161079f565b9450506020610a8a8782880161079f565b9350506040610a9b87828801610a16565b9250506060610aac87828801610a40565b91505092959194509250565b5f5f5f60608486031215610acf57610ace610751565b5b5f610adc8682870161079f565b9350506020610aed8682870161079f565b9250506040610afe86828701610a40565b9150509250925092565b5f8115159050919050565b610b1c81610b08565b82525050565b5f602082019050610b355f830184610b13565b92915050565b5f5f5f5f60808587031215610b5357610b52610751565b5b5f610b608782880161079f565b9450506020610b7187828801610a16565b9350506040610b828782880161079f565b9250506060610b9387828801610a40565b91505092959194509250565b610ba881610778565b82525050565b5f604082019050610bc15f830185610b9f565b610bce6020830184610b9f565b9392505050565b5f81519050610be381610a2a565b92915050565b5f60208284031215610bfe57610bfd610751565b5b5f610c0b84828501610bd5565b91505092915050565b5f602082019050610c275f830184610b9f565b92915050565b7f4e487b71000000000000000000000000000000000000000000000000000000005f52603260045260245ffd5b5f606082019050610c6d5f830186610b9f565b610c7a6020830185610b9f565b610c8760408301846107fa565b949350505050565b610c9881610b08565b8114610ca2575f5ffd5b50565b5f81519050610cb381610c8f565b92915050565b5f60208284031215610cce57610ccd610751565b5b5f610cdb84828501610ca5565b91505092915050565b610ced816109f7565b82525050565b5f608082019050610d065f830187610b9f565b610d136020830186610ce4565b610d206040830185610b9f565b610d2d60608301846107fa565b95945050505050565b5f82825260208201905092915050565b7f496e76616c696420746f6b656e206164647265737300000000000000000000005f82015250565b5f610d7a601583610d36565b9150610d8582610d46565b602082019050919050565b5f6020820190508181035f830152610da781610d6e565b9050919050565b7f496e76616c6964207370656e64657220616464726573730000000000000000005f82015250565b5f610de2601783610d36565b9150610ded82610dae565b602082019050919050565b5f6020820190508181035f830152610e0f81610dd6565b9050919050565b5f604082019050610e295f830185610b9f565b610e3660208301846107fa565b9392505050565b7f4552432d323020617070726f76616c206661696c6564000000000000000000005f82015250565b5f610e71601683610d36565b9150610e7c82610e3d565b602082019050919050565b5f6020820190508181035f830152610e9e81610e65565b9050919050565b7f496e76616c6964204d756c7469536967206164647265737300000000000000005f82015250565b5f610ed9601883610d36565b9150610ee482610ea5565b602082019050919050565b5f6020820190508181035f830152610f0681610ecd565b9050919050565b7f416d6f756e74206d7573742062652067726561746572207468616e20300000005f82015250565b5f610f41601d83610d36565b9150610f4c82610f0d565b602082019050919050565b5f6020820190508181035f830152610f6e81610f35565b9050919050565b5f606082019050610f885f830186610ce4565b610f956020830185610b9f565b610fa260408301846107fa565b94935050505056fea26469706673582212209bd4636eb52cec464730526cb1a1fd8700fc2109fe2e6dbe22ae6cdcf4ab1c0364736f6c634300081e0033","linkReferences":{}},"methodIdentifiers":{"approveAndDeposit(address,address,bytes32,uint256)":"d47c5983","approveRecovery(address[],address)":"78b4fc61","approveToken(address,address,uint256)":"da3e3397","depositTokenToMultiSig(address,bytes32,address,uint256)":"de2c1964","getAllowance(address,address)":"0af4187d","getTokenBalance(address)":"3aecd0e3"},"id":26}