{"abi":[{"type":"receive","stateMutability":"payable"},{"type":"function","name":"approveAndDeposit","inputs":[{"name":"token","type":"address","internalType":"address"},{"name":"multiSigAddress","type":"address","internalType":"address"},{"name":"txHash","type":"bytes32","internalType":"bytes32"},{"name":"depositAmount","type":"uint256","internalType":"uint256"}],"outputs":[],"stateMutability":"nonpayable"},{"type":"function","name":"approveRecovery","inputs":[{"name":"tokens","type":"address[]","internalType":"address[]"},{"name":"spender","type":"address","internalType":"address"}],"outputs":[],"stateMutability":"nonpayable"},{"type":"function","name":"approveToken","inputs":[{"name":"token","type":"address","internalType":"address"},{"name":"spender","type":"address","internalType":"address"},{"name":"amount","type":"uint256","internalType":"uint256"}],"outputs":[{"name":"","type":"bool","internalType":"bool"}],"stateMutability":"nonpayable"},{"type":"function","name":"depositTokenToMultiSig","inputs":[{"name":"multiSigAddress","type":"address","internalType":"address"},{"name":"txHash","type":"bytes32","internalType":"bytes32"},{"name":"token","type":"address","internalType":"address"},{"name":"amount","type":"uint256","internalType":"uint256"}],"outputs":[],"stateMutability":"nonpayable"},{"type":"function","name":"getAllowance","inputs":[{"name":"token","type":"address","internalType":"address"},{"name":"spender","type":"address","internalType":"address"}],"outputs":[{"name":"","type":"uint256","internalType":"uint256"}],"stateMutability":"view"},{"type":"function","name":"getTokenBalance","inputs":[{"name":"token","type":"address","internalType":"address"}],"outputs":[{"name":"","type":"uint256","internalType":"uint256"}],"stateMutability":"view"}],"bytecode":{"object":"0x6080604052348015600e575f5ffd5b506114598061001c5f395ff3fe608060405260043610610058575f3560e01c80630af4187d146100635780633aecd0e31461009f57806378b4fc61146100db578063d47c598314610103578063da3e33971461012b578063de2c1964146101675761005f565b3661005f57005b5f5ffd5b34801561006e575f5ffd5b50610089600480360381019061008491906109f7565b61018f565b6040516100969190610a4d565b60405180910390f35b3480156100aa575f5ffd5b506100c560048036038101906100c09190610a66565b610212565b6040516100d29190610a4d565b60405180910390f35b3480156100e6575f5ffd5b5061010160048036038101906100fc9190610be1565b610292565b005b34801561010e575f5ffd5b5061012960048036038101906101249190610c98565b610567565b005b348015610136575f5ffd5b50610151600480360381019061014c9190610cfc565b610657565b60405161015e9190610d66565b60405180910390f35b348015610172575f5ffd5b5061018d60048036038101906101889190610d7f565b6107fe565b005b5f8273ffffffffffffffffffffffffffffffffffffffff1663dd62ed3e30846040518363ffffffff1660e01b81526004016101cb929190610df2565b602060405180830381865afa1580156101e6573d5f5f3e3d5ffd5b505050506040513d601f19601f8201168201806040525081019061020a9190610e2d565b905092915050565b5f8173ffffffffffffffffffffffffffffffffffffffff166370a08231306040518263ffffffff1660e01b815260040161024c9190610e58565b602060405180830381865afa158015610267573d5f5f3e3d5ffd5b505050506040513d601f19601f8201168201806040525081019061028b9190610e2d565b9050919050565b5f73ffffffffffffffffffffffffffffffffffffffff168173ffffffffffffffffffffffffffffffffffffffff1603610300576040517f08c379a00000000000000000000000000000000000000000000000000000000081526004016102f790610ecb565b60405180910390fd5b5f8173ffffffffffffffffffffffffffffffffffffffff163b11610359576040517f08c379a000000000000000000000000000000000000000000000000000000000815260040161035090610f33565b60405180910390fd5b5f5f90505b825181101561042c573073ffffffffffffffffffffffffffffffffffffffff1663da3e339784838151811061039657610395610f51565b5b6020026020010151847fffffffffffffffffffffffffffffffffffffffffffffffffffffffffffffffff6040518463ffffffff1660e01b81526004016103de93929190610f7e565b6020604051808303815f875af11580156103fa573d5f5f3e3d5ffd5b505050506040513d601f19601f8201168201806040525081019061041e9190610fdd565b50808060010191505061035e565b505f8173ffffffffffffffffffffffffffffffffffffffff168360405160240161045691906110bf565b6040516020818303038152906040527f4ae05c7d000000000000000000000000000000000000000000000000000000007bffffffffffffffffffffffffffffffffffffffffffffffffffffffff19166020820180517bffffffffffffffffffffffffffffffffffffffffffffffffffffffff83818316178352505050506040516104e09190611131565b5f604051808303815f865af19150503d805f8114610519576040519150601f19603f3d011682016040523d82523d5f602084013e61051e565b606091505b5050905080610562576040517f08c379a0000000000000000000000000000000000000000000000000000000008152600401610559906111b7565b60405180910390fd5b505050565b3073ffffffffffffffffffffffffffffffffffffffff1663da3e33978585846040518463ffffffff1660e01b81526004016105a493929190610f7e565b6020604051808303815f875af11580156105c0573d5f5f3e3d5ffd5b505050506040513d601f19601f820116820180604052508101906105e49190610fdd565b503073ffffffffffffffffffffffffffffffffffffffff1663de2c1964848487856040518563ffffffff1660e01b815260040161062494939291906111e4565b5f604051808303815f87803b15801561063b575f5ffd5b505af115801561064d573d5f5f3e3d5ffd5b5050505050505050565b5f5f73ffffffffffffffffffffffffffffffffffffffff168473ffffffffffffffffffffffffffffffffffffffff16036106c6576040517f08c379a00000000000000000000000000000000000000000000000000000000081526004016106bd90611271565b60405180910390fd5b5f73ffffffffffffffffffffffffffffffffffffffff168373ffffffffffffffffffffffffffffffffffffffff1603610734576040517f08c379a000000000000000000000000000000000000000000000000000000000815260040161072b90610ecb565b60405180910390fd5b5f8473ffffffffffffffffffffffffffffffffffffffff1663095ea7b385856040518363ffffffff1660e01b815260040161077092919061128f565b6020604051808303815f875af115801561078c573d5f5f3e3d5ffd5b505050506040513d601f19601f820116820180604052508101906107b09190610fdd565b9050806107f2576040517f08c379a00000000000000000000000000000000000000000000000000000000081526004016107e990611300565b60405180910390fd5b60019150509392505050565b5f73ffffffffffffffffffffffffffffffffffffffff168473ffffffffffffffffffffffffffffffffffffffff160361086c576040517f08c379a000000000000000000000000000000000000000000000000000000000815260040161086390611368565b60405180910390fd5b5f73ffffffffffffffffffffffffffffffffffffffff168273ffffffffffffffffffffffffffffffffffffffff16036108da576040517f08c379a00000000000000000000000000000000000000000000000000000000081526004016108d190611271565b60405180910390fd5b5f811161091c576040517f08c379a0000000000000000000000000000000000000000000000000000000008152600401610913906113d0565b60405180910390fd5b8373ffffffffffffffffffffffffffffffffffffffff1663d954863c8484846040518463ffffffff1660e01b8152600401610959939291906113ee565b5f604051808303815f87803b158015610970575f5ffd5b505af1158015610982573d5f5f3e3d5ffd5b5050505050505050565b5f604051905090565b5f5ffd5b5f5ffd5b5f73ffffffffffffffffffffffffffffffffffffffff82169050919050565b5f6109c68261099d565b9050919050565b6109d6816109bc565b81146109e0575f5ffd5b50565b5f813590506109f1816109cd565b92915050565b5f5f60408385031215610a0d57610a0c610995565b5b5f610a1a858286016109e3565b9250506020610a2b858286016109e3565b9150509250929050565b5f819050919050565b610a4781610a35565b82525050565b5f602082019050610a605f830184610a3e565b92915050565b5f60208284031215610a7b57610a7a610995565b5b5f610a88848285016109e3565b91505092915050565b5f5ffd5b5f601f19601f8301169050919050565b7f4e487b71000000000000000000000000000000000000000000000000000000005f52604160045260245ffd5b610adb82610a95565b810181811067ffffffffffffffff82111715610afa57610af9610aa5565b5b80604052505050565b5f610b0c61098c565b9050610b188282610ad2565b919050565b5f67ffffffffffffffff821115610b3757610b36610aa5565b5b602082029050602081019050919050565b5f5ffd5b5f610b5e610b5984610b1d565b610b03565b90508083825260208201905060208402830185811115610b8157610b80610b48565b5b835b81811015610baa5780610b9688826109e3565b845260208401935050602081019050610b83565b5050509392505050565b5f82601f830112610bc857610bc7610a91565b5b8135610bd8848260208601610b4c565b91505092915050565b5f5f60408385031215610bf757610bf6610995565b5b5f83013567ffffffffffffffff811115610c1457610c13610999565b5b610c2085828601610bb4565b9250506020610c31858286016109e3565b9150509250929050565b5f819050919050565b610c4d81610c3b565b8114610c57575f5ffd5b50565b5f81359050610c6881610c44565b92915050565b610c7781610a35565b8114610c81575f5ffd5b50565b5f81359050610c9281610c6e565b92915050565b5f5f5f5f60808587031215610cb057610caf610995565b5b5f610cbd878288016109e3565b9450506020610cce878288016109e3565b9350506040610cdf87828801610c5a565b9250506060610cf087828801610c84565b91505092959194509250565b5f5f5f60608486031215610d1357610d12610995565b5b5f610d20868287016109e3565b9350506020610d31868287016109e3565b9250506040610d4286828701610c84565b9150509250925092565b5f8115159050919050565b610d6081610d4c565b82525050565b5f602082019050610d795f830184610d57565b92915050565b5f5f5f5f60808587031215610d9757610d96610995565b5b5f610da4878288016109e3565b9450506020610db587828801610c5a565b9350506040610dc6878288016109e3565b9250506060610dd787828801610c84565b91505092959194509250565b610dec816109bc565b82525050565b5f604082019050610e055f830185610de3565b610e126020830184610de3565b9392505050565b5f81519050610e2781610c6e565b92915050565b5f60208284031215610e4257610e41610995565b5b5f610e4f84828501610e19565b91505092915050565b5f602082019050610e6b5f830184610de3565b92915050565b5f82825260208201905092915050565b7f496e76616c6964207370656e64657220616464726573730000000000000000005f82015250565b5f610eb5601783610e71565b9150610ec082610e81565b602082019050919050565b5f6020820190508181035f830152610ee281610ea9565b9050919050565b7f5370656e646572206973206e6f74206120636f6e7472616374000000000000005f82015250565b5f610f1d601983610e71565b9150610f2882610ee9565b602082019050919050565b5f6020820190508181035f830152610f4a81610f11565b9050919050565b7f4e487b71000000000000000000000000000000000000000000000000000000005f52603260045260245ffd5b5f606082019050610f915f830186610de3565b610f9e6020830185610de3565b610fab6040830184610a3e565b949350505050565b610fbc81610d4c565b8114610fc6575f5ffd5b50565b5f81519050610fd781610fb3565b92915050565b5f60208284031215610ff257610ff1610995565b5b5f610fff84828501610fc9565b91505092915050565b5f81519050919050565b5f82825260208201905092915050565b5f819050602082019050919050565b61103a816109bc565b82525050565b5f61104b8383611031565b60208301905092915050565b5f602082019050919050565b5f61106d82611008565b6110778185611012565b935061108283611022565b805f5b838110156110b25781516110998882611040565b97506110a483611057565b925050600181019050611085565b5085935050505092915050565b5f6020820190508181035f8301526110d78184611063565b905092915050565b5f81519050919050565b5f81905092915050565b8281835e5f83830152505050565b5f61110b826110df565b61111581856110e9565b93506111258185602086016110f3565b80840191505092915050565b5f61113c8284611101565b915081905092915050565b7f4661696c656420746f2061646420746f6b656e7320746f20736f6369616c20725f8201527f65636f7665727900000000000000000000000000000000000000000000000000602082015250565b5f6111a1602783610e71565b91506111ac82611147565b604082019050919050565b5f6020820190508181035f8301526111ce81611195565b9050919050565b6111de81610c3b565b82525050565b5f6080820190506111f75f830187610de3565b61120460208301866111d5565b6112116040830185610de3565b61121e6060830184610a3e565b95945050505050565b7f496e76616c696420746f6b656e206164647265737300000000000000000000005f82015250565b5f61125b601583610e71565b915061126682611227565b602082019050919050565b5f6020820190508181035f8301526112888161124f565b9050919050565b5f6040820190506112a25f830185610de3565b6112af6020830184610a3e565b9392505050565b7f4552432d323020617070726f76616c206661696c6564000000000000000000005f82015250565b5f6112ea601683610e71565b91506112f5826112b6565b602082019050919050565b5f6020820190508181035f830152611317816112de565b9050919050565b7f496e76616c6964204d756c7469536967206164647265737300000000000000005f82015250565b5f611352601883610e71565b915061135d8261131e565b602082019050919050565b5f6020820190508181035f83015261137f81611346565b9050919050565b7f416d6f756e74206d7573742062652067726561746572207468616e20300000005f82015250565b5f6113ba601d83610e71565b91506113c582611386565b602082019050919050565b5f6020820190508181035f8301526113e7816113ae565b9050919050565b5f6060820190506114015f8301866111d5565b61140e6020830185610de3565b61141b6040830184610a3e565b94935050505056fea2646970667358221220cd6e7a9add1819a8cdca1da8b2ac80e72db4c9dd85cf606af67f8510de7a01df64736f6c634300081e0033","linkReferences":{}},"methodIdentifiers":{"approveAndDeposit(address,address,bytes32,uint256)":"d47c5983","approveRecovery(address[],address)":"78b4fc61","approveToken(address,address,uint256)":"da3e3397","depositTokenToMultiSig(address,bytes32,address,uint256)":"de2c1964","getAllowance(address,address)":"0af4187d","getTokenBalance(address)":"3aecd0e3"},"id":24}