{"abi":[{"type":"function","name":"approveAndDeposit","inputs":[{"name":"token","type":"address","internalType":"address"},{"name":"multiSigAddress","type":"address","internalType":"address"},{"name":"txHash","type":"bytes32","internalType":"bytes32"},{"name":"depositAmount","type":"uint256","internalType":"uint256"}],"outputs":[],"stateMutability":"nonpayable"},{"type":"function","name":"approveToken","inputs":[{"name":"token","type":"address","internalType":"address"},{"name":"spender","type":"address","internalType":"address"},{"name":"amount","type":"uint256","internalType":"uint256"}],"outputs":[{"name":"","type":"bool","internalType":"bool"}],"stateMutability":"nonpayable"},{"type":"function","name":"depositTokenToMultiSig","inputs":[{"name":"multiSigAddress","type":"address","internalType":"address"},{"name":"txHash","type":"bytes32","internalType":"bytes32"},{"name":"token","type":"address","internalType":"address"},{"name":"amount","type":"uint256","internalType":"uint256"}],"outputs":[],"stateMutability":"nonpayable"},{"type":"function","name":"getAllowance","inputs":[{"name":"token","type":"address","internalType":"address"},{"name":"spender","type":"address","internalType":"address"}],"outputs":[{"name":"","type":"uint256","internalType":"uint256"}],"stateMutability":"view"},{"type":"function","name":"getTokenBalance","inputs":[{"name":"token","type":"address","internalType":"address"}],"outputs":[{"name":"","type":"uint256","internalType":"uint256"}],"stateMutability":"view"}],"bytecode":{"object":"0x6080604052348015600e575f5ffd5b50610cfd8061001c5f395ff3fe608060405234801561000f575f5ffd5b5060043610610055575f3560e01c80630af4187d146100595780633aecd0e314610089578063d47c5983146100b9578063da3e3397146100d5578063de2c196414610105575b5f5ffd5b610073600480360381019061006e91906106a7565b610121565b60405161008091906106fd565b60405180910390f35b6100a3600480360381019061009e9190610716565b6101a4565b6040516100b091906106fd565b60405180910390f35b6100d360048036038101906100ce919061079e565b610224565b005b6100ef60048036038101906100ea9190610802565b610314565b6040516100fc919061086c565b60405180910390f35b61011f600480360381019061011a9190610885565b6104bb565b005b5f8273ffffffffffffffffffffffffffffffffffffffff1663dd62ed3e30846040518363ffffffff1660e01b815260040161015d9291906108f8565b602060405180830381865afa158015610178573d5f5f3e3d5ffd5b505050506040513d601f19601f8201168201806040525081019061019c9190610933565b905092915050565b5f8173ffffffffffffffffffffffffffffffffffffffff166370a08231306040518263ffffffff1660e01b81526004016101de919061095e565b602060405180830381865afa1580156101f9573d5f5f3e3d5ffd5b505050506040513d601f19601f8201168201806040525081019061021d9190610933565b9050919050565b3073ffffffffffffffffffffffffffffffffffffffff1663da3e33978585846040518463ffffffff1660e01b815260040161026193929190610977565b6020604051808303815f875af115801561027d573d5f5f3e3d5ffd5b505050506040513d601f19601f820116820180604052508101906102a191906109d6565b503073ffffffffffffffffffffffffffffffffffffffff1663de2c1964848487856040518563ffffffff1660e01b81526004016102e19493929190610a10565b5f604051808303815f87803b1580156102f8575f5ffd5b505af115801561030a573d5f5f3e3d5ffd5b5050505050505050565b5f5f73ffffffffffffffffffffffffffffffffffffffff168473ffffffffffffffffffffffffffffffffffffffff1603610383576040517f08c379a000000000000000000000000000000000000000000000000000000000815260040161037a90610aad565b60405180910390fd5b5f73ffffffffffffffffffffffffffffffffffffffff168373ffffffffffffffffffffffffffffffffffffffff16036103f1576040517f08c379a00000000000000000000000000000000000000000000000000000000081526004016103e890610b15565b60405180910390fd5b5f8473ffffffffffffffffffffffffffffffffffffffff1663095ea7b385856040518363ffffffff1660e01b815260040161042d929190610b33565b6020604051808303815f875af1158015610449573d5f5f3e3d5ffd5b505050506040513d601f19601f8201168201806040525081019061046d91906109d6565b9050806104af576040517f08c379a00000000000000000000000000000000000000000000000000000000081526004016104a690610ba4565b60405180910390fd5b60019150509392505050565b5f73ffffffffffffffffffffffffffffffffffffffff168473ffffffffffffffffffffffffffffffffffffffff1603610529576040517f08c379a000000000000000000000000000000000000000000000000000000000815260040161052090610c0c565b60405180910390fd5b5f73ffffffffffffffffffffffffffffffffffffffff168273ffffffffffffffffffffffffffffffffffffffff1603610597576040517f08c379a000000000000000000000000000000000000000000000000000000000815260040161058e90610aad565b60405180910390fd5b5f81116105d9576040517f08c379a00000000000000000000000000000000000000000000000000000000081526004016105d090610c74565b60405180910390fd5b8373ffffffffffffffffffffffffffffffffffffffff1663d954863c8484846040518463ffffffff1660e01b815260040161061693929190610c92565b5f604051808303815f87803b15801561062d575f5ffd5b505af115801561063f573d5f5f3e3d5ffd5b5050505050505050565b5f5ffd5b5f73ffffffffffffffffffffffffffffffffffffffff82169050919050565b5f6106768261064d565b9050919050565b6106868161066c565b8114610690575f5ffd5b50565b5f813590506106a18161067d565b92915050565b5f5f604083850312156106bd576106bc610649565b5b5f6106ca85828601610693565b92505060206106db85828601610693565b9150509250929050565b5f819050919050565b6106f7816106e5565b82525050565b5f6020820190506107105f8301846106ee565b92915050565b5f6020828403121561072b5761072a610649565b5b5f61073884828501610693565b91505092915050565b5f819050919050565b61075381610741565b811461075d575f5ffd5b50565b5f8135905061076e8161074a565b92915050565b61077d816106e5565b8114610787575f5ffd5b50565b5f8135905061079881610774565b92915050565b5f5f5f5f608085870312156107b6576107b5610649565b5b5f6107c387828801610693565b94505060206107d487828801610693565b93505060406107e587828801610760565b92505060606107f68782880161078a565b91505092959194509250565b5f5f5f6060848603121561081957610818610649565b5b5f61082686828701610693565b935050602061083786828701610693565b92505060406108488682870161078a565b9150509250925092565b5f8115159050919050565b61086681610852565b82525050565b5f60208201905061087f5f83018461085d565b92915050565b5f5f5f5f6080858703121561089d5761089c610649565b5b5f6108aa87828801610693565b94505060206108bb87828801610760565b93505060406108cc87828801610693565b92505060606108dd8782880161078a565b91505092959194509250565b6108f28161066c565b82525050565b5f60408201905061090b5f8301856108e9565b61091860208301846108e9565b9392505050565b5f8151905061092d81610774565b92915050565b5f6020828403121561094857610947610649565b5b5f6109558482850161091f565b91505092915050565b5f6020820190506109715f8301846108e9565b92915050565b5f60608201905061098a5f8301866108e9565b61099760208301856108e9565b6109a460408301846106ee565b949350505050565b6109b581610852565b81146109bf575f5ffd5b50565b5f815190506109d0816109ac565b92915050565b5f602082840312156109eb576109ea610649565b5b5f6109f8848285016109c2565b91505092915050565b610a0a81610741565b82525050565b5f608082019050610a235f8301876108e9565b610a306020830186610a01565b610a3d60408301856108e9565b610a4a60608301846106ee565b95945050505050565b5f82825260208201905092915050565b7f496e76616c696420746f6b656e206164647265737300000000000000000000005f82015250565b5f610a97601583610a53565b9150610aa282610a63565b602082019050919050565b5f6020820190508181035f830152610ac481610a8b565b9050919050565b7f496e76616c6964207370656e64657220616464726573730000000000000000005f82015250565b5f610aff601783610a53565b9150610b0a82610acb565b602082019050919050565b5f6020820190508181035f830152610b2c81610af3565b9050919050565b5f604082019050610b465f8301856108e9565b610b5360208301846106ee565b9392505050565b7f4552432d323020617070726f76616c206661696c6564000000000000000000005f82015250565b5f610b8e601683610a53565b9150610b9982610b5a565b602082019050919050565b5f6020820190508181035f830152610bbb81610b82565b9050919050565b7f496e76616c6964204d756c7469536967206164647265737300000000000000005f82015250565b5f610bf6601883610a53565b9150610c0182610bc2565b602082019050919050565b5f6020820190508181035f830152610c2381610bea565b9050919050565b7f416d6f756e74206d7573742062652067726561746572207468616e20300000005f82015250565b5f610c5e601d83610a53565b9150610c6982610c2a565b602082019050919050565b5f6020820190508181035f830152610c8b81610c52565b9050919050565b5f606082019050610ca55f830186610a01565b610cb260208301856108e9565b610cbf60408301846106ee565b94935050505056fea2646970667358221220762d4df2036020a82e51fa68f7b6152879b89466e407a969b760f3edc93fd92a64736f6c634300081e0033","linkReferences":{}},"methodIdentifiers":{"approveAndDeposit(address,address,bytes32,uint256)":"d47c5983","approveToken(address,address,uint256)":"da3e3397","depositTokenToMultiSig(address,bytes32,address,uint256)":"de2c1964","getAllowance(address,address)":"0af4187d","getTokenBalance(address)":"3aecd0e3"},"id":25}