{"abi":[{"type":"constructor","inputs":[{"name":"_signers","type":"address[]","internalType":"address[]"},{"name":"_minSignatures","type":"uint256","internalType":"uint256"}],"stateMutability":"nonpayable"},{"type":"function","name":"deposit","inputs":[{"name":"txHash","type":"bytes32","internalType":"bytes32"}],"outputs":[],"stateMutability":"payable"},{"type":"function","name":"deposit","inputs":[{"name":"txHash","type":"bytes32","internalType":"bytes32"},{"name":"token","type":"address","internalType":"address"},{"name":"amount","type":"uint256","internalType":"uint256"}],"outputs":[],"stateMutability":"nonpayable"},{"type":"function","name":"execute","inputs":[{"name":"txHash","type":"bytes32","internalType":"bytes32"}],"outputs":[],"stateMutability":"nonpayable"},{"type":"function","name":"getBalance","inputs":[],"outputs":[{"name":"","type":"uint256","internalType":"uint256"}],"stateMutability":"view"},{"type":"function","name":"getBalance","inputs":[{"name":"txHash","type":"bytes32","internalType":"bytes32"}],"outputs":[{"name":"","type":"uint256","internalType":"uint256"}],"stateMutability":"view"},{"type":"function","name":"getBalance","inputs":[{"name":"token","type":"address","internalType":"address"}],"outputs":[{"name":"","type":"uint256","internalType":"uint256"}],"stateMutability":"view"},{"type":"function","name":"getTransaction","inputs":[{"name":"txHash","type":"bytes32","internalType":"bytes32"}],"outputs":[{"name":"","type":"tuple","internalType":"struct IMultiSig.Transaction","components":[{"name":"to","type":"address","internalType":"address"},{"name":"native","type":"bool","internalType":"bool"},{"name":"token","type":"address","internalType":"address"},{"name":"amount","type":"uint256","internalType":"uint256"},{"name":"proposer","type":"address","internalType":"address"},{"name":"timestamp","type":"uint256","internalType":"uint256"},{"name":"signedCount","type":"uint256","internalType":"uint256"},{"name":"executed","type":"bool","internalType":"bool"},{"name":"balance","type":"uint256","internalType":"uint256"}]}],"stateMutability":"view"},{"type":"function","name":"minSignatures","inputs":[],"outputs":[{"name":"","type":"uint256","internalType":"uint256"}],"stateMutability":"view"},{"type":"function","name":"propose","inputs":[{"name":"to","type":"address","internalType":"address"},{"name":"amount","type":"uint256","internalType":"uint256"},{"name":"token","type":"address","internalType":"address"}],"outputs":[{"name":"txHash","type":"bytes32","internalType":"bytes32"}],"stateMutability":"nonpayable"},{"type":"function","name":"propose","inputs":[{"name":"to","type":"address","internalType":"address"},{"name":"amount","type":"uint256","internalType":"uint256"}],"outputs":[{"name":"txHash","type":"bytes32","internalType":"bytes32"}],"stateMutability":"nonpayable"},{"type":"function","name":"sign","inputs":[{"name":"txHash","type":"bytes32","internalType":"bytes32"}],"outputs":[],"stateMutability":"nonpayable"},{"type":"function","name":"signers","inputs":[{"name":"","type":"address","internalType":"address"}],"outputs":[{"name":"","type":"bool","internalType":"bool"}],"stateMutability":"view"},{"type":"function","name":"transactionSigners","inputs":[{"name":"","type":"bytes32","internalType":"bytes32"},{"name":"","type":"address","internalType":"address"}],"outputs":[{"name":"","type":"bool","internalType":"bool"}],"stateMutability":"view"},{"type":"function","name":"transactions","inputs":[{"name":"","type":"bytes32","internalType":"bytes32"}],"outputs":[{"name":"to","type":"address","internalType":"address"},{"name":"native","type":"bool","internalType":"bool"},{"name":"token","type":"address","internalType":"address"},{"name":"amount","type":"uint256","internalType":"uint256"},{"name":"proposer","type":"address","internalType":"address"},{"name":"timestamp","type":"uint256","internalType":"uint256"},{"name":"signedCount","type":"uint256","internalType":"uint256"},{"name":"executed","type":"bool","internalType":"bool"},{"name":"balance","type":"uint256","internalType":"uint256"}],"stateMutability":"view"},{"type":"event","name":"Propose","inputs":[{"name":"txHash","type":"bytes32","indexed":false,"internalType":"bytes32"}],"anonymous":false}],"bytecode":{"object":"0x608060405234801561000f575f5ffd5b50604051612a4a380380612a4a83398181016040528101906100319190610380565b5f825111610074576040517f08c379a000000000000000000000000000000000000000000000000000000000815260040161006b90610434565b60405180910390fd5b5f81116100b6576040517f08c379a00000000000000000000000000000000000000000000000000000000081526004016100ad906104c2565b60405180910390fd5b81518111156100fa576040517f08c379a00000000000000000000000000000000000000000000000000000000081526004016100f190610550565b60405180910390fd5b5f5f90505b82518110156101835760015f5f85848151811061011f5761011e61056e565b5b602002602001015173ffffffffffffffffffffffffffffffffffffffff1673ffffffffffffffffffffffffffffffffffffffff1681526020019081526020015f205f6101000a81548160ff02191690831515021790555080806001019150506100ff565b5080600181905550505061059b565b5f604051905090565b5f5ffd5b5f5ffd5b5f5ffd5b5f601f19601f8301169050919050565b7f4e487b71000000000000000000000000000000000000000000000000000000005f52604160045260245ffd5b6101ed826101a7565b810181811067ffffffffffffffff8211171561020c5761020b6101b7565b5b80604052505050565b5f61021e610192565b905061022a82826101e4565b919050565b5f67ffffffffffffffff821115610249576102486101b7565b5b602082029050602081019050919050565b5f5ffd5b5f73ffffffffffffffffffffffffffffffffffffffff82169050919050565b5f6102878261025e565b9050919050565b6102978161027d565b81146102a1575f5ffd5b50565b5f815190506102b28161028e565b92915050565b5f6102ca6102c58461022f565b610215565b905080838252602082019050602084028301858111156102ed576102ec61025a565b5b835b81811015610316578061030288826102a4565b8452602084019350506020810190506102ef565b5050509392505050565b5f82601f830112610334576103336101a3565b5b81516103448482602086016102b8565b91505092915050565b5f819050919050565b61035f8161034d565b8114610369575f5ffd5b50565b5f8151905061037a81610356565b92915050565b5f5f604083850312156103965761039561019b565b5b5f83015167ffffffffffffffff8111156103b3576103b261019f565b5b6103bf85828601610320565b92505060206103d08582860161036c565b9150509250929050565b5f82825260208201905092915050565b7f4d7573742068617665206174206c65617374206f6e65207369676e65720000005f82015250565b5f61041e601d836103da565b9150610429826103ea565b602082019050919050565b5f6020820190508181035f83015261044b81610412565b9050919050565b7f4d696e207369676e617475726573206d757374206265206772656174657220745f8201527f68616e2030000000000000000000000000000000000000000000000000000000602082015250565b5f6104ac6025836103da565b91506104b782610452565b604082019050919050565b5f6020820190508181035f8301526104d9816104a0565b9050919050565b7f4d696e207369676e6174757265732063616e6e6f7420657863656564207369675f8201527f6e657220636f756e740000000000000000000000000000000000000000000000602082015250565b5f61053a6029836103da565b9150610545826104e0565b604082019050919050565b5f6020820190508181035f8301526105678161052e565b9050919050565b7f4e487b71000000000000000000000000000000000000000000000000000000005f52603260045260245ffd5b6124a2806105a85f395ff3fe6080604052600436106100dc575f3560e01c8063736c0d5b1161007e578063b214faa511610058578063b214faa514610308578063d954863c14610324578063e751f2711461034c578063f8b2cb4f14610374576100dc565b8063736c0d5b14610268578063799cd333146102a45780638e739461146102cc576100dc565b80634aae13ca116100ba5780634aae13ca14610170578063589de5df146101ac5780635c9e45a5146101e8578063642f2eaf14610224576100dc565b806312065fe0146100e0578063238acaa21461010a57806332fdf10414610134575b5f5ffd5b3480156100eb575f5ffd5b506100f46103b0565b604051610101919061183a565b60405180910390f35b348015610115575f5ffd5b5061011e6103b7565b60405161012b919061183a565b60405180910390f35b34801561013f575f5ffd5b5061015a600480360381019061015591906118db565b6103bd565b6040516101679190611943565b60405180910390f35b34801561017b575f5ffd5b5061019660048036038101906101919190611986565b610875565b6040516101a39190611a9e565b60405180910390f35b3480156101b7575f5ffd5b506101d260048036038101906101cd9190611ab8565b6109fb565b6040516101df9190611943565b60405180910390f35b3480156101f3575f5ffd5b5061020e60048036038101906102099190611af6565b610d39565b60405161021b9190611b43565b60405180910390f35b34801561022f575f5ffd5b5061024a60048036038101906102459190611986565b610d63565b60405161025f99989796959493929190611b6b565b60405180910390f35b348015610273575f5ffd5b5061028e60048036038101906102899190611bf6565b610e22565b60405161029b9190611b43565b60405180910390f35b3480156102af575f5ffd5b506102ca60048036038101906102c59190611986565b610e3e565b005b3480156102d7575f5ffd5b506102f260048036038101906102ed9190611986565b611045565b6040516102ff919061183a565b60405180910390f35b610322600480360381019061031d9190611986565b611062565b005b34801561032f575f5ffd5b5061034a60048036038101906103459190611c21565b611130565b005b348015610357575f5ffd5b50610372600480360381019061036d9190611986565b611283565b005b34801561037f575f5ffd5b5061039a60048036038101906103959190611bf6565b611714565b6040516103a7919061183a565b60405180910390f35b5f47905090565b60015481565b5f5f5f3373ffffffffffffffffffffffffffffffffffffffff1673ffffffffffffffffffffffffffffffffffffffff1681526020019081526020015f205f9054906101000a900460ff16610446576040517f08c379a000000000000000000000000000000000000000000000000000000000815260040161043d90611ccb565b60405180910390fd5b5f73ffffffffffffffffffffffffffffffffffffffff168473ffffffffffffffffffffffffffffffffffffffff16036104b4576040517f08c379a00000000000000000000000000000000000000000000000000000000081526004016104ab90611d33565b60405180910390fd5b5f73ffffffffffffffffffffffffffffffffffffffff168273ffffffffffffffffffffffffffffffffffffffff1603610522576040517f08c379a000000000000000000000000000000000000000000000000000000000815260040161051990611d9b565b60405180910390fd5b5f3073ffffffffffffffffffffffffffffffffffffffff163b1161057b576040517f08c379a000000000000000000000000000000000000000000000000000000000815260040161057290611e03565b60405180910390fd5b5f8290505f8173ffffffffffffffffffffffffffffffffffffffff166318160ddd6040518163ffffffff1660e01b8152600401602060405180830381865afa1580156105c9573d5f5f3e3d5ffd5b505050506040513d601f19601f820116820180604052508101906105ed9190611e35565b1161062d576040517f08c379a000000000000000000000000000000000000000000000000000000000815260040161062490611eaa565b60405180910390fd5b5f6040518061012001604052808773ffffffffffffffffffffffffffffffffffffffff1681526020015f151581526020018573ffffffffffffffffffffffffffffffffffffffff1681526020018681526020013373ffffffffffffffffffffffffffffffffffffffff1681526020014281526020015f81526020015f151581526020015f81525090508585338360a001516040516020016106d19493929190611f2d565b6040516020818303038152906040528051906020012092508060025f8581526020019081526020015f205f820151815f015f6101000a81548173ffffffffffffffffffffffffffffffffffffffff021916908373ffffffffffffffffffffffffffffffffffffffff1602179055506020820151815f0160146101000a81548160ff0219169083151502179055506040820151816001015f6101000a81548173ffffffffffffffffffffffffffffffffffffffff021916908373ffffffffffffffffffffffffffffffffffffffff160217905550606082015181600201556080820151816003015f6101000a81548173ffffffffffffffffffffffffffffffffffffffff021916908373ffffffffffffffffffffffffffffffffffffffff16021790555060a0820151816004015560c0820151816005015560e0820151816006015f6101000a81548160ff02191690831515021790555061010082015181600701559050507f9444faaba7b7c532280ca9e2460e0a845a237e2af2ec1297f43afe45d41bf19b836040516108649190611943565b60405180910390a150509392505050565b61087d611799565b60025f8381526020019081526020015f20604051806101200160405290815f82015f9054906101000a900473ffffffffffffffffffffffffffffffffffffffff1673ffffffffffffffffffffffffffffffffffffffff1673ffffffffffffffffffffffffffffffffffffffff1681526020015f820160149054906101000a900460ff16151515158152602001600182015f9054906101000a900473ffffffffffffffffffffffffffffffffffffffff1673ffffffffffffffffffffffffffffffffffffffff1673ffffffffffffffffffffffffffffffffffffffff16815260200160028201548152602001600382015f9054906101000a900473ffffffffffffffffffffffffffffffffffffffff1673ffffffffffffffffffffffffffffffffffffffff1673ffffffffffffffffffffffffffffffffffffffff1681526020016004820154815260200160058201548152602001600682015f9054906101000a900460ff161515151581526020016007820154815250509050919050565b5f5f5f3373ffffffffffffffffffffffffffffffffffffffff1673ffffffffffffffffffffffffffffffffffffffff1681526020019081526020015f205f9054906101000a900460ff16610a84576040517f08c379a0000000000000000000000000000000000000000000000000000000008152600401610a7b90611ccb565b60405180910390fd5b5f73ffffffffffffffffffffffffffffffffffffffff168373ffffffffffffffffffffffffffffffffffffffff1603610af2576040517f08c379a0000000000000000000000000000000000000000000000000000000008152600401610ae990611d33565b60405180910390fd5b5f6040518061012001604052808573ffffffffffffffffffffffffffffffffffffffff1681526020016001151581526020015f73ffffffffffffffffffffffffffffffffffffffff1681526020018481526020013373ffffffffffffffffffffffffffffffffffffffff1681526020014281526020015f81526020015f151581526020015f81525090508383338360a00151604051602001610b979493929190611f2d565b6040516020818303038152906040528051906020012091508060025f8481526020019081526020015f205f820151815f015f6101000a81548173ffffffffffffffffffffffffffffffffffffffff021916908373ffffffffffffffffffffffffffffffffffffffff1602179055506020820151815f0160146101000a81548160ff0219169083151502179055506040820151816001015f6101000a81548173ffffffffffffffffffffffffffffffffffffffff021916908373ffffffffffffffffffffffffffffffffffffffff160217905550606082015181600201556080820151816003015f6101000a81548173ffffffffffffffffffffffffffffffffffffffff021916908373ffffffffffffffffffffffffffffffffffffffff16021790555060a0820151816004015560c0820151816005015560e0820151816006015f6101000a81548160ff02191690831515021790555061010082015181600701559050507f9444faaba7b7c532280ca9e2460e0a845a237e2af2ec1297f43afe45d41bf19b82604051610d2a9190611943565b60405180910390a15092915050565b6003602052815f5260405f20602052805f5260405f205f915091509054906101000a900460ff1681565b6002602052805f5260405f205f91509050805f015f9054906101000a900473ffffffffffffffffffffffffffffffffffffffff1690805f0160149054906101000a900460ff1690806001015f9054906101000a900473ffffffffffffffffffffffffffffffffffffffff1690806002015490806003015f9054906101000a900473ffffffffffffffffffffffffffffffffffffffff1690806004015490806005015490806006015f9054906101000a900460ff16908060070154905089565b5f602052805f5260405f205f915054906101000a900460ff1681565b5f60025f8381526020019081526020015f209050806006015f9054906101000a900460ff1615610ea3576040517f08c379a0000000000000000000000000000000000000000000000000000000008152600401610e9a90611fc4565b60405180910390fd5b60035f8381526020019081526020015f205f3373ffffffffffffffffffffffffffffffffffffffff1673ffffffffffffffffffffffffffffffffffffffff1681526020019081526020015f205f9054906101000a900460ff1615610f3c576040517f08c379a0000000000000000000000000000000000000000000000000000000008152600401610f339061202c565b60405180910390fd5b5f5f3373ffffffffffffffffffffffffffffffffffffffff1673ffffffffffffffffffffffffffffffffffffffff1681526020019081526020015f205f9054906101000a900460ff16610fc4576040517f08c379a0000000000000000000000000000000000000000000000000000000008152600401610fbb90612094565b60405180910390fd5b600160035f8481526020019081526020015f205f3373ffffffffffffffffffffffffffffffffffffffff1673ffffffffffffffffffffffffffffffffffffffff1681526020019081526020015f205f6101000a81548160ff021916908315150217905550806005015f81548092919061103c906120df565b91905055505050565b5f60025f8381526020019081526020015f20600701549050919050565b5f73ffffffffffffffffffffffffffffffffffffffff1660025f8381526020019081526020015f206003015f9054906101000a900473ffffffffffffffffffffffffffffffffffffffff1673ffffffffffffffffffffffffffffffffffffffff1603611103576040517f08c379a00000000000000000000000000000000000000000000000000000000081526004016110fa90612170565b60405180910390fd5b3460025f8381526020019081526020015f206007015f828254611126919061218e565b9250508190555050565b5f73ffffffffffffffffffffffffffffffffffffffff1660025f8581526020019081526020015f206003015f9054906101000a900473ffffffffffffffffffffffffffffffffffffffff1673ffffffffffffffffffffffffffffffffffffffff16036111d1576040517f08c379a00000000000000000000000000000000000000000000000000000000081526004016111c890612170565b60405180910390fd5b5f8290508073ffffffffffffffffffffffffffffffffffffffff166323b872dd3330856040518463ffffffff1660e01b8152600401611212939291906121c1565b6020604051808303815f875af115801561122e573d5f5f3e3d5ffd5b505050506040513d601f19601f820116820180604052508101906112529190612220565b508160025f8681526020019081526020015f206007015f828254611276919061218e565b9250508190555050505050565b5f60025f8381526020019081526020015f2090505f73ffffffffffffffffffffffffffffffffffffffff16816003015f9054906101000a900473ffffffffffffffffffffffffffffffffffffffff1673ffffffffffffffffffffffffffffffffffffffff1603611328576040517f08c379a000000000000000000000000000000000000000000000000000000000815260040161131f90612170565b60405180910390fd5b60015481600501541015611371576040517f08c379a000000000000000000000000000000000000000000000000000000000815260040161136890612295565b60405180910390fd5b806006015f9054906101000a900460ff16156113c2576040517f08c379a00000000000000000000000000000000000000000000000000000000081526004016113b990611fc4565b60405180910390fd5b5f5f3373ffffffffffffffffffffffffffffffffffffffff1673ffffffffffffffffffffffffffffffffffffffff1681526020019081526020015f205f9054906101000a900460ff1661144a576040517f08c379a0000000000000000000000000000000000000000000000000000000008152600401611441906122fd565b60405180910390fd5b805f0160149054906101000a900460ff161561159b578060020154816007015410156114ab576040517f08c379a00000000000000000000000000000000000000000000000000000000081526004016114a290612365565b60405180910390fd5b6001816006015f6101000a81548160ff0219169083151502179055505f815f015f9054906101000a900473ffffffffffffffffffffffffffffffffffffffff1673ffffffffffffffffffffffffffffffffffffffff168260020154604051611512906123b0565b5f6040518083038185875af1925050503d805f811461154c576040519150601f19603f3d011682016040523d82523d5f602084013e611551565b606091505b5050905080611595576040517f08c379a000000000000000000000000000000000000000000000000000000000815260040161158c9061240e565b60405180910390fd5b50611710565b8060020154816007015410156115e6576040517f08c379a00000000000000000000000000000000000000000000000000000000081526004016115dd90612365565b60405180910390fd5b5f816001015f9054906101000a900473ffffffffffffffffffffffffffffffffffffffff1690506001826006015f6101000a81548160ff0219169083151502179055505f8173ffffffffffffffffffffffffffffffffffffffff1663a9059cbb845f015f9054906101000a900473ffffffffffffffffffffffffffffffffffffffff1685600201546040518363ffffffff1660e01b815260040161168b92919061242c565b6020604051808303815f875af11580156116a7573d5f5f3e3d5ffd5b505050506040513d601f19601f820116820180604052508101906116cb9190612220565b90508061170d576040517f08c379a00000000000000000000000000000000000000000000000000000000081526004016117049061240e565b60405180910390fd5b50505b5050565b5f5f8290508073ffffffffffffffffffffffffffffffffffffffff166370a08231306040518263ffffffff1660e01b81526004016117529190612453565b602060405180830381865afa15801561176d573d5f5f3e3d5ffd5b505050506040513d601f19601f820116820180604052508101906117919190611e35565b915050919050565b6040518061012001604052805f73ffffffffffffffffffffffffffffffffffffffff1681526020015f151581526020015f73ffffffffffffffffffffffffffffffffffffffff1681526020015f81526020015f73ffffffffffffffffffffffffffffffffffffffff1681526020015f81526020015f81526020015f151581526020015f81525090565b5f819050919050565b61183481611822565b82525050565b5f60208201905061184d5f83018461182b565b92915050565b5f5ffd5b5f73ffffffffffffffffffffffffffffffffffffffff82169050919050565b5f61188082611857565b9050919050565b61189081611876565b811461189a575f5ffd5b50565b5f813590506118ab81611887565b92915050565b6118ba81611822565b81146118c4575f5ffd5b50565b5f813590506118d5816118b1565b92915050565b5f5f5f606084860312156118f2576118f1611853565b5b5f6118ff8682870161189d565b9350506020611910868287016118c7565b92505060406119218682870161189d565b9150509250925092565b5f819050919050565b61193d8161192b565b82525050565b5f6020820190506119565f830184611934565b92915050565b6119658161192b565b811461196f575f5ffd5b50565b5f813590506119808161195c565b92915050565b5f6020828403121561199b5761199a611853565b5b5f6119a884828501611972565b91505092915050565b6119ba81611876565b82525050565b5f8115159050919050565b6119d4816119c0565b82525050565b6119e381611822565b82525050565b61012082015f8201516119fe5f8501826119b1565b506020820151611a1160208501826119cb565b506040820151611a2460408501826119b1565b506060820151611a3760608501826119da565b506080820151611a4a60808501826119b1565b5060a0820151611a5d60a08501826119da565b5060c0820151611a7060c08501826119da565b5060e0820151611a8360e08501826119cb565b50610100820151611a986101008501826119da565b50505050565b5f61012082019050611ab25f8301846119e9565b92915050565b5f5f60408385031215611ace57611acd611853565b5b5f611adb8582860161189d565b9250506020611aec858286016118c7565b9150509250929050565b5f5f60408385031215611b0c57611b0b611853565b5b5f611b1985828601611972565b9250506020611b2a8582860161189d565b9150509250929050565b611b3d816119c0565b82525050565b5f602082019050611b565f830184611b34565b92915050565b611b6581611876565b82525050565b5f61012082019050611b7f5f83018c611b5c565b611b8c602083018b611b34565b611b99604083018a611b5c565b611ba6606083018961182b565b611bb36080830188611b5c565b611bc060a083018761182b565b611bcd60c083018661182b565b611bda60e0830185611b34565b611be861010083018461182b565b9a9950505050505050505050565b5f60208284031215611c0b57611c0a611853565b5b5f611c188482850161189d565b91505092915050565b5f5f5f60608486031215611c3857611c37611853565b5b5f611c4586828701611972565b9350506020611c568682870161189d565b9250506040611c67868287016118c7565b9150509250925092565b5f82825260208201905092915050565b7f4f6e6c79207369676e6572732063616e2070726f706f736500000000000000005f82015250565b5f611cb5601883611c71565b9150611cc082611c81565b602082019050919050565b5f6020820190508181035f830152611ce281611ca9565b9050919050565b7f496e76616c6964207461726765742061646472657373000000000000000000005f82015250565b5f611d1d601683611c71565b9150611d2882611ce9565b602082019050919050565b5f6020820190508181035f830152611d4a81611d11565b9050919050565b7f496e76616c696420746f6b656e206164647265737300000000000000000000005f82015250565b5f611d85601583611c71565b9150611d9082611d51565b602082019050919050565b5f6020820190508181035f830152611db281611d79565b9050919050565b7f436f6e7472616374206e6f74206465706c6f79656400000000000000000000005f82015250565b5f611ded601583611c71565b9150611df882611db9565b602082019050919050565b5f6020820190508181035f830152611e1a81611de1565b9050919050565b5f81519050611e2f816118b1565b92915050565b5f60208284031215611e4a57611e49611853565b5b5f611e5784828501611e21565b91505092915050565b7f546f6b656e206e6f74206465706c6f79656400000000000000000000000000005f82015250565b5f611e94601283611c71565b9150611e9f82611e60565b602082019050919050565b5f6020820190508181035f830152611ec181611e88565b9050919050565b5f8160601b9050919050565b5f611ede82611ec8565b9050919050565b5f611eef82611ed4565b9050919050565b611f07611f0282611876565b611ee5565b82525050565b5f819050919050565b611f27611f2282611822565b611f0d565b82525050565b5f611f388287611ef6565b601482019150611f488286611f16565b602082019150611f588285611ef6565b601482019150611f688284611f16565b60208201915081905095945050505050565b7f5472616e73616374696f6e20616c7265616479206578656375746564000000005f82015250565b5f611fae601c83611c71565b9150611fb982611f7a565b602082019050919050565b5f6020820190508181035f830152611fdb81611fa2565b9050919050565b7f416c7265616479207369676e65640000000000000000000000000000000000005f82015250565b5f612016600e83611c71565b915061202182611fe2565b602082019050919050565b5f6020820190508181035f8301526120438161200a565b9050919050565b7f4f6e6c79207369676e6572732063616e207369676e00000000000000000000005f82015250565b5f61207e601583611c71565b91506120898261204a565b602082019050919050565b5f6020820190508181035f8301526120ab81612072565b9050919050565b7f4e487b71000000000000000000000000000000000000000000000000000000005f52601160045260245ffd5b5f6120e982611822565b91507fffffffffffffffffffffffffffffffffffffffffffffffffffffffffffffffff820361211b5761211a6120b2565b5b600182019050919050565b7f5472616e73616374696f6e206e6f7420666f756e6400000000000000000000005f82015250565b5f61215a601583611c71565b915061216582612126565b602082019050919050565b5f6020820190508181035f8301526121878161214e565b9050919050565b5f61219882611822565b91506121a383611822565b92508282019050808211156121bb576121ba6120b2565b5b92915050565b5f6060820190506121d45f830186611b5c565b6121e16020830185611b5c565b6121ee604083018461182b565b949350505050565b6121ff816119c0565b8114612209575f5ffd5b50565b5f8151905061221a816121f6565b92915050565b5f6020828403121561223557612234611853565b5b5f6122428482850161220c565b91505092915050565b7f4e6f7420656e6f756768207369676e61747572657300000000000000000000005f82015250565b5f61227f601583611c71565b915061228a8261224b565b602082019050919050565b5f6020820190508181035f8301526122ac81612273565b9050919050565b7f4f6e6c79207369676e6572732063616e206578656375746500000000000000005f82015250565b5f6122e7601883611c71565b91506122f2826122b3565b602082019050919050565b5f6020820190508181035f830152612314816122db565b9050919050565b7f4e6f7420656e6f7567682062616c616e636500000000000000000000000000005f82015250565b5f61234f601283611c71565b915061235a8261231b565b602082019050919050565b5f6020820190508181035f83015261237c81612343565b9050919050565b5f81905092915050565b50565b5f61239b5f83612383565b91506123a68261238d565b5f82019050919050565b5f6123ba82612390565b9150819050919050565b7f457865637574696f6e206661696c6564000000000000000000000000000000005f82015250565b5f6123f8601083611c71565b9150612403826123c4565b602082019050919050565b5f6020820190508181035f830152612425816123ec565b9050919050565b5f60408201905061243f5f830185611b5c565b61244c602083018461182b565b9392505050565b5f6020820190506124665f830184611b5c565b9291505056fea26469706673582212203b3301999739d1bd455a20a30b3e903f99936e4deec23f3894db98d16f65cb1464736f6c634300081e0033","linkReferences":{}},"methodIdentifiers":{"deposit(bytes32)":"b214faa5","deposit(bytes32,address,uint256)":"d954863c","execute(bytes32)":"e751f271","getBalance()":"12065fe0","getBalance(address)":"f8b2cb4f","getBalance(bytes32)":"8e739461","getTransaction(bytes32)":"4aae13ca","minSignatures()":"238acaa2","propose(address,uint256)":"589de5df","propose(address,uint256,address)":"32fdf104","sign(bytes32)":"799cd333","signers(address)":"736c0d5b","transactionSigners(bytes32,address)":"5c9e45a5","transactions(bytes32)":"642f2eaf"},"id":28}