{"abi":[{"type":"constructor","inputs":[{"name":"_signers","type":"address[]","internalType":"address[]"},{"name":"_minSignatures","type":"uint256","internalType":"uint256"}],"stateMutability":"nonpayable"},{"type":"function","name":"deposit","inputs":[{"name":"txHash","type":"bytes32","internalType":"bytes32"}],"outputs":[],"stateMutability":"payable"},{"type":"function","name":"deposit","inputs":[{"name":"txHash","type":"bytes32","internalType":"bytes32"},{"name":"token","type":"address","internalType":"address"},{"name":"amount","type":"uint256","internalType":"uint256"}],"outputs":[],"stateMutability":"nonpayable"},{"type":"function","name":"execute","inputs":[{"name":"txHash","type":"bytes32","internalType":"bytes32"}],"outputs":[],"stateMutability":"nonpayable"},{"type":"function","name":"getBalance","inputs":[],"outputs":[{"name":"","type":"uint256","internalType":"uint256"}],"stateMutability":"view"},{"type":"function","name":"getBalance","inputs":[{"name":"txHash","type":"bytes32","internalType":"bytes32"}],"outputs":[{"name":"","type":"uint256","internalType":"uint256"}],"stateMutability":"view"},{"type":"function","name":"getBalance","inputs":[{"name":"token","type":"address","internalType":"address"}],"outputs":[{"name":"","type":"uint256","internalType":"uint256"}],"stateMutability":"view"},{"type":"function","name":"getTransaction","inputs":[{"name":"txHash","type":"bytes32","internalType":"bytes32"}],"outputs":[{"name":"","type":"tuple","internalType":"struct IMultiSig.Transaction","components":[{"name":"to","type":"address","internalType":"address"},{"name":"native","type":"bool","internalType":"bool"},{"name":"token","type":"address","internalType":"address"},{"name":"amount","type":"uint256","internalType":"uint256"},{"name":"proposer","type":"address","internalType":"address"},{"name":"timestamp","type":"uint256","internalType":"uint256"},{"name":"signedCount","type":"uint256","internalType":"uint256"},{"name":"executed","type":"bool","internalType":"bool"},{"name":"balance","type":"uint256","internalType":"uint256"}]}],"stateMutability":"view"},{"type":"function","name":"minSignatures","inputs":[],"outputs":[{"name":"","type":"uint256","internalType":"uint256"}],"stateMutability":"view"},{"type":"function","name":"propose","inputs":[{"name":"to","type":"address","internalType":"address"},{"name":"amount","type":"uint256","internalType":"uint256"},{"name":"token","type":"address","internalType":"address"}],"outputs":[{"name":"txHash","type":"bytes32","internalType":"bytes32"}],"stateMutability":"nonpayable"},{"type":"function","name":"propose","inputs":[{"name":"to","type":"address","internalType":"address"},{"name":"amount","type":"uint256","internalType":"uint256"}],"outputs":[{"name":"txHash","type":"bytes32","internalType":"bytes32"}],"stateMutability":"nonpayable"},{"type":"function","name":"sign","inputs":[{"name":"txHash","type":"bytes32","internalType":"bytes32"}],"outputs":[],"stateMutability":"nonpayable"},{"type":"function","name":"signers","inputs":[{"name":"","type":"address","internalType":"address"}],"outputs":[{"name":"","type":"bool","internalType":"bool"}],"stateMutability":"view"},{"type":"function","name":"transactionSigners","inputs":[{"name":"","type":"bytes32","internalType":"bytes32"},{"name":"","type":"address","internalType":"address"}],"outputs":[{"name":"","type":"bool","internalType":"bool"}],"stateMutability":"view"},{"type":"function","name":"transactions","inputs":[{"name":"","type":"bytes32","internalType":"bytes32"}],"outputs":[{"name":"to","type":"address","internalType":"address"},{"name":"native","type":"bool","internalType":"bool"},{"name":"token","type":"address","internalType":"address"},{"name":"amount","type":"uint256","internalType":"uint256"},{"name":"proposer","type":"address","internalType":"address"},{"name":"timestamp","type":"uint256","internalType":"uint256"},{"name":"signedCount","type":"uint256","internalType":"uint256"},{"name":"executed","type":"bool","internalType":"bool"},{"name":"balance","type":"uint256","internalType":"uint256"}],"stateMutability":"view"},{"type":"event","name":"Propose","inputs":[{"name":"txHash","type":"bytes32","indexed":false,"internalType":"bytes32"}],"anonymous":false}],"bytecode":{"object":"0x608060405234801561000f575f5ffd5b5060405161289038038061289083398181016040528101906100319190610380565b5f825111610074576040517f08c379a000000000000000000000000000000000000000000000000000000000815260040161006b90610434565b60405180910390fd5b5f81116100b6576040517f08c379a00000000000000000000000000000000000000000000000000000000081526004016100ad906104c2565b60405180910390fd5b81518111156100fa576040517f08c379a00000000000000000000000000000000000000000000000000000000081526004016100f190610550565b60405180910390fd5b5f5f90505b82518110156101835760015f5f85848151811061011f5761011e61056e565b5b602002602001015173ffffffffffffffffffffffffffffffffffffffff1673ffffffffffffffffffffffffffffffffffffffff1681526020019081526020015f205f6101000a81548160ff02191690831515021790555080806001019150506100ff565b5080600181905550505061059b565b5f604051905090565b5f5ffd5b5f5ffd5b5f5ffd5b5f601f19601f8301169050919050565b7f4e487b71000000000000000000000000000000000000000000000000000000005f52604160045260245ffd5b6101ed826101a7565b810181811067ffffffffffffffff8211171561020c5761020b6101b7565b5b80604052505050565b5f61021e610192565b905061022a82826101e4565b919050565b5f67ffffffffffffffff821115610249576102486101b7565b5b602082029050602081019050919050565b5f5ffd5b5f73ffffffffffffffffffffffffffffffffffffffff82169050919050565b5f6102878261025e565b9050919050565b6102978161027d565b81146102a1575f5ffd5b50565b5f815190506102b28161028e565b92915050565b5f6102ca6102c58461022f565b610215565b905080838252602082019050602084028301858111156102ed576102ec61025a565b5b835b81811015610316578061030288826102a4565b8452602084019350506020810190506102ef565b5050509392505050565b5f82601f830112610334576103336101a3565b5b81516103448482602086016102b8565b91505092915050565b5f819050919050565b61035f8161034d565b8114610369575f5ffd5b50565b5f8151905061037a81610356565b92915050565b5f5f604083850312156103965761039561019b565b5b5f83015167ffffffffffffffff8111156103b3576103b261019f565b5b6103bf85828601610320565b92505060206103d08582860161036c565b9150509250929050565b5f82825260208201905092915050565b7f4d7573742068617665206174206c65617374206f6e65207369676e65720000005f82015250565b5f61041e601d836103da565b9150610429826103ea565b602082019050919050565b5f6020820190508181035f83015261044b81610412565b9050919050565b7f4d696e207369676e617475726573206d757374206265206772656174657220745f8201527f68616e2030000000000000000000000000000000000000000000000000000000602082015250565b5f6104ac6025836103da565b91506104b782610452565b604082019050919050565b5f6020820190508181035f8301526104d9816104a0565b9050919050565b7f4d696e207369676e6174757265732063616e6e6f7420657863656564207369675f8201527f6e657220636f756e740000000000000000000000000000000000000000000000602082015250565b5f61053a6029836103da565b9150610545826104e0565b604082019050919050565b5f6020820190508181035f8301526105678161052e565b9050919050565b7f4e487b71000000000000000000000000000000000000000000000000000000005f52603260045260245ffd5b6122e8806105a85f395ff3fe6080604052600436106100dc575f3560e01c8063736c0d5b1161007e578063b214faa511610058578063b214faa514610308578063d954863c14610324578063e751f2711461034c578063f8b2cb4f14610374576100dc565b8063736c0d5b14610268578063799cd333146102a45780638e739461146102cc576100dc565b80634aae13ca116100ba5780634aae13ca14610170578063589de5df146101ac5780635c9e45a5146101e8578063642f2eaf14610224576100dc565b806312065fe0146100e0578063238acaa21461010a57806332fdf10414610134575b5f5ffd5b3480156100eb575f5ffd5b506100f46103b0565b604051610101919061172a565b60405180910390f35b348015610115575f5ffd5b5061011e6103b7565b60405161012b919061172a565b60405180910390f35b34801561013f575f5ffd5b5061015a600480360381019061015591906117cb565b6103bd565b6040516101679190611833565b60405180910390f35b34801561017b575f5ffd5b5061019660048036038101906101919190611876565b6107ed565b6040516101a3919061198e565b60405180910390f35b3480156101b7575f5ffd5b506101d260048036038101906101cd91906119a8565b610973565b6040516101df9190611833565b60405180910390f35b3480156101f3575f5ffd5b5061020e600480360381019061020991906119e6565b610c29565b60405161021b9190611a33565b60405180910390f35b34801561022f575f5ffd5b5061024a60048036038101906102459190611876565b610c53565b60405161025f99989796959493929190611a5b565b60405180910390f35b348015610273575f5ffd5b5061028e60048036038101906102899190611ae6565b610d12565b60405161029b9190611a33565b60405180910390f35b3480156102af575f5ffd5b506102ca60048036038101906102c59190611876565b610d2e565b005b3480156102d7575f5ffd5b506102f260048036038101906102ed9190611876565b610f35565b6040516102ff919061172a565b60405180910390f35b610322600480360381019061031d9190611876565b610f52565b005b34801561032f575f5ffd5b5061034a60048036038101906103459190611b11565b611020565b005b348015610357575f5ffd5b50610372600480360381019061036d9190611876565b611173565b005b34801561037f575f5ffd5b5061039a60048036038101906103959190611ae6565b611604565b6040516103a7919061172a565b60405180910390f35b5f47905090565b60015481565b5f5f73ffffffffffffffffffffffffffffffffffffffff168473ffffffffffffffffffffffffffffffffffffffff160361042c576040517f08c379a000000000000000000000000000000000000000000000000000000000815260040161042390611bbb565b60405180910390fd5b5f73ffffffffffffffffffffffffffffffffffffffff168273ffffffffffffffffffffffffffffffffffffffff160361049a576040517f08c379a000000000000000000000000000000000000000000000000000000000815260040161049190611c23565b60405180910390fd5b5f3073ffffffffffffffffffffffffffffffffffffffff163b116104f3576040517f08c379a00000000000000000000000000000000000000000000000000000000081526004016104ea90611c8b565b60405180910390fd5b5f8290505f8173ffffffffffffffffffffffffffffffffffffffff166318160ddd6040518163ffffffff1660e01b8152600401602060405180830381865afa158015610541573d5f5f3e3d5ffd5b505050506040513d601f19601f820116820180604052508101906105659190611cbd565b116105a5576040517f08c379a000000000000000000000000000000000000000000000000000000000815260040161059c90611d32565b60405180910390fd5b5f6040518061012001604052808773ffffffffffffffffffffffffffffffffffffffff1681526020015f151581526020018573ffffffffffffffffffffffffffffffffffffffff1681526020018681526020013373ffffffffffffffffffffffffffffffffffffffff1681526020014281526020015f81526020015f151581526020015f81525090508585338360a001516040516020016106499493929190611db5565b6040516020818303038152906040528051906020012092508060025f8581526020019081526020015f205f820151815f015f6101000a81548173ffffffffffffffffffffffffffffffffffffffff021916908373ffffffffffffffffffffffffffffffffffffffff1602179055506020820151815f0160146101000a81548160ff0219169083151502179055506040820151816001015f6101000a81548173ffffffffffffffffffffffffffffffffffffffff021916908373ffffffffffffffffffffffffffffffffffffffff160217905550606082015181600201556080820151816003015f6101000a81548173ffffffffffffffffffffffffffffffffffffffff021916908373ffffffffffffffffffffffffffffffffffffffff16021790555060a0820151816004015560c0820151816005015560e0820151816006015f6101000a81548160ff02191690831515021790555061010082015181600701559050507f9444faaba7b7c532280ca9e2460e0a845a237e2af2ec1297f43afe45d41bf19b836040516107dc9190611833565b60405180910390a150509392505050565b6107f5611689565b60025f8381526020019081526020015f20604051806101200160405290815f82015f9054906101000a900473ffffffffffffffffffffffffffffffffffffffff1673ffffffffffffffffffffffffffffffffffffffff1673ffffffffffffffffffffffffffffffffffffffff1681526020015f820160149054906101000a900460ff16151515158152602001600182015f9054906101000a900473ffffffffffffffffffffffffffffffffffffffff1673ffffffffffffffffffffffffffffffffffffffff1673ffffffffffffffffffffffffffffffffffffffff16815260200160028201548152602001600382015f9054906101000a900473ffffffffffffffffffffffffffffffffffffffff1673ffffffffffffffffffffffffffffffffffffffff1673ffffffffffffffffffffffffffffffffffffffff1681526020016004820154815260200160058201548152602001600682015f9054906101000a900460ff161515151581526020016007820154815250509050919050565b5f5f73ffffffffffffffffffffffffffffffffffffffff168373ffffffffffffffffffffffffffffffffffffffff16036109e2576040517f08c379a00000000000000000000000000000000000000000000000000000000081526004016109d990611bbb565b60405180910390fd5b5f6040518061012001604052808573ffffffffffffffffffffffffffffffffffffffff1681526020016001151581526020015f73ffffffffffffffffffffffffffffffffffffffff1681526020018481526020013373ffffffffffffffffffffffffffffffffffffffff1681526020014281526020015f81526020015f151581526020015f81525090508383338360a00151604051602001610a879493929190611db5565b6040516020818303038152906040528051906020012091508060025f8481526020019081526020015f205f820151815f015f6101000a81548173ffffffffffffffffffffffffffffffffffffffff021916908373ffffffffffffffffffffffffffffffffffffffff1602179055506020820151815f0160146101000a81548160ff0219169083151502179055506040820151816001015f6101000a81548173ffffffffffffffffffffffffffffffffffffffff021916908373ffffffffffffffffffffffffffffffffffffffff160217905550606082015181600201556080820151816003015f6101000a81548173ffffffffffffffffffffffffffffffffffffffff021916908373ffffffffffffffffffffffffffffffffffffffff16021790555060a0820151816004015560c0820151816005015560e0820151816006015f6101000a81548160ff02191690831515021790555061010082015181600701559050507f9444faaba7b7c532280ca9e2460e0a845a237e2af2ec1297f43afe45d41bf19b82604051610c1a9190611833565b60405180910390a15092915050565b6003602052815f5260405f20602052805f5260405f205f915091509054906101000a900460ff1681565b6002602052805f5260405f205f91509050805f015f9054906101000a900473ffffffffffffffffffffffffffffffffffffffff1690805f0160149054906101000a900460ff1690806001015f9054906101000a900473ffffffffffffffffffffffffffffffffffffffff1690806002015490806003015f9054906101000a900473ffffffffffffffffffffffffffffffffffffffff1690806004015490806005015490806006015f9054906101000a900460ff16908060070154905089565b5f602052805f5260405f205f915054906101000a900460ff1681565b5f5f3373ffffffffffffffffffffffffffffffffffffffff1673ffffffffffffffffffffffffffffffffffffffff1681526020019081526020015f205f9054906101000a900460ff16610db6576040517f08c379a0000000000000000000000000000000000000000000000000000000008152600401610dad90611e72565b60405180910390fd5b5f60025f8381526020019081526020015f209050806006015f9054906101000a900460ff1615610e1b576040517f08c379a0000000000000000000000000000000000000000000000000000000008152600401610e1290611eda565b60405180910390fd5b60035f8381526020019081526020015f205f3373ffffffffffffffffffffffffffffffffffffffff1673ffffffffffffffffffffffffffffffffffffffff1681526020019081526020015f205f9054906101000a900460ff1615610eb4576040517f08c379a0000000000000000000000000000000000000000000000000000000008152600401610eab90611f42565b60405180910390fd5b600160035f8481526020019081526020015f205f3373ffffffffffffffffffffffffffffffffffffffff1673ffffffffffffffffffffffffffffffffffffffff1681526020019081526020015f205f6101000a81548160ff021916908315150217905550806005015f815480929190610f2c90611f8d565b91905055505050565b5f60025f8381526020019081526020015f20600701549050919050565b5f73ffffffffffffffffffffffffffffffffffffffff1660025f8381526020019081526020015f206003015f9054906101000a900473ffffffffffffffffffffffffffffffffffffffff1673ffffffffffffffffffffffffffffffffffffffff1603610ff3576040517f08c379a0000000000000000000000000000000000000000000000000000000008152600401610fea9061201e565b60405180910390fd5b3460025f8381526020019081526020015f206007015f828254611016919061203c565b9250508190555050565b5f73ffffffffffffffffffffffffffffffffffffffff1660025f8581526020019081526020015f206003015f9054906101000a900473ffffffffffffffffffffffffffffffffffffffff1673ffffffffffffffffffffffffffffffffffffffff16036110c1576040517f08c379a00000000000000000000000000000000000000000000000000000000081526004016110b89061201e565b60405180910390fd5b5f8290508073ffffffffffffffffffffffffffffffffffffffff166323b872dd3330856040518463ffffffff1660e01b81526004016111029392919061206f565b6020604051808303815f875af115801561111e573d5f5f3e3d5ffd5b505050506040513d601f19601f8201168201806040525081019061114291906120ce565b508160025f8681526020019081526020015f206007015f828254611166919061203c565b9250508190555050505050565b5f5f3373ffffffffffffffffffffffffffffffffffffffff1673ffffffffffffffffffffffffffffffffffffffff1681526020019081526020015f205f9054906101000a900460ff166111fb576040517f08c379a00000000000000000000000000000000000000000000000000000000081526004016111f290611e72565b60405180910390fd5b5f60025f8381526020019081526020015f2090505f73ffffffffffffffffffffffffffffffffffffffff16816003015f9054906101000a900473ffffffffffffffffffffffffffffffffffffffff1673ffffffffffffffffffffffffffffffffffffffff16036112a0576040517f08c379a00000000000000000000000000000000000000000000000000000000081526004016112979061201e565b60405180910390fd5b600154816005015410156112e9576040517f08c379a00000000000000000000000000000000000000000000000000000000081526004016112e090612143565b60405180910390fd5b806006015f9054906101000a900460ff161561133a576040517f08c379a000000000000000000000000000000000000000000000000000000000815260040161133190611eda565b60405180910390fd5b805f0160149054906101000a900460ff161561148b5780600201548160070154101561139b576040517f08c379a0000000000000000000000000000000000000000000000000000000008152600401611392906121ab565b60405180910390fd5b6001816006015f6101000a81548160ff0219169083151502179055505f815f015f9054906101000a900473ffffffffffffffffffffffffffffffffffffffff1673ffffffffffffffffffffffffffffffffffffffff168260020154604051611402906121f6565b5f6040518083038185875af1925050503d805f811461143c576040519150601f19603f3d011682016040523d82523d5f602084013e611441565b606091505b5050905080611485576040517f08c379a000000000000000000000000000000000000000000000000000000000815260040161147c90612254565b60405180910390fd5b50611600565b8060020154816007015410156114d6576040517f08c379a00000000000000000000000000000000000000000000000000000000081526004016114cd906121ab565b60405180910390fd5b5f816001015f9054906101000a900473ffffffffffffffffffffffffffffffffffffffff1690506001826006015f6101000a81548160ff0219169083151502179055505f8173ffffffffffffffffffffffffffffffffffffffff1663a9059cbb845f015f9054906101000a900473ffffffffffffffffffffffffffffffffffffffff1685600201546040518363ffffffff1660e01b815260040161157b929190612272565b6020604051808303815f875af1158015611597573d5f5f3e3d5ffd5b505050506040513d601f19601f820116820180604052508101906115bb91906120ce565b9050806115fd576040517f08c379a00000000000000000000000000000000000000000000000000000000081526004016115f490612254565b60405180910390fd5b50505b5050565b5f5f8290508073ffffffffffffffffffffffffffffffffffffffff166370a08231306040518263ffffffff1660e01b81526004016116429190612299565b602060405180830381865afa15801561165d573d5f5f3e3d5ffd5b505050506040513d601f19601f820116820180604052508101906116819190611cbd565b915050919050565b6040518061012001604052805f73ffffffffffffffffffffffffffffffffffffffff1681526020015f151581526020015f73ffffffffffffffffffffffffffffffffffffffff1681526020015f81526020015f73ffffffffffffffffffffffffffffffffffffffff1681526020015f81526020015f81526020015f151581526020015f81525090565b5f819050919050565b61172481611712565b82525050565b5f60208201905061173d5f83018461171b565b92915050565b5f5ffd5b5f73ffffffffffffffffffffffffffffffffffffffff82169050919050565b5f61177082611747565b9050919050565b61178081611766565b811461178a575f5ffd5b50565b5f8135905061179b81611777565b92915050565b6117aa81611712565b81146117b4575f5ffd5b50565b5f813590506117c5816117a1565b92915050565b5f5f5f606084860312156117e2576117e1611743565b5b5f6117ef8682870161178d565b9350506020611800868287016117b7565b92505060406118118682870161178d565b9150509250925092565b5f819050919050565b61182d8161181b565b82525050565b5f6020820190506118465f830184611824565b92915050565b6118558161181b565b811461185f575f5ffd5b50565b5f813590506118708161184c565b92915050565b5f6020828403121561188b5761188a611743565b5b5f61189884828501611862565b91505092915050565b6118aa81611766565b82525050565b5f8115159050919050565b6118c4816118b0565b82525050565b6118d381611712565b82525050565b61012082015f8201516118ee5f8501826118a1565b50602082015161190160208501826118bb565b50604082015161191460408501826118a1565b50606082015161192760608501826118ca565b50608082015161193a60808501826118a1565b5060a082015161194d60a08501826118ca565b5060c082015161196060c08501826118ca565b5060e082015161197360e08501826118bb565b506101008201516119886101008501826118ca565b50505050565b5f610120820190506119a25f8301846118d9565b92915050565b5f5f604083850312156119be576119bd611743565b5b5f6119cb8582860161178d565b92505060206119dc858286016117b7565b9150509250929050565b5f5f604083850312156119fc576119fb611743565b5b5f611a0985828601611862565b9250506020611a1a8582860161178d565b9150509250929050565b611a2d816118b0565b82525050565b5f602082019050611a465f830184611a24565b92915050565b611a5581611766565b82525050565b5f61012082019050611a6f5f83018c611a4c565b611a7c602083018b611a24565b611a89604083018a611a4c565b611a96606083018961171b565b611aa36080830188611a4c565b611ab060a083018761171b565b611abd60c083018661171b565b611aca60e0830185611a24565b611ad861010083018461171b565b9a9950505050505050505050565b5f60208284031215611afb57611afa611743565b5b5f611b088482850161178d565b91505092915050565b5f5f5f60608486031215611b2857611b27611743565b5b5f611b3586828701611862565b9350506020611b468682870161178d565b9250506040611b57868287016117b7565b9150509250925092565b5f82825260208201905092915050565b7f496e76616c6964207461726765742061646472657373000000000000000000005f82015250565b5f611ba5601683611b61565b9150611bb082611b71565b602082019050919050565b5f6020820190508181035f830152611bd281611b99565b9050919050565b7f496e76616c696420746f6b656e206164647265737300000000000000000000005f82015250565b5f611c0d601583611b61565b9150611c1882611bd9565b602082019050919050565b5f6020820190508181035f830152611c3a81611c01565b9050919050565b7f436f6e7472616374206e6f74206465706c6f79656400000000000000000000005f82015250565b5f611c75601583611b61565b9150611c8082611c41565b602082019050919050565b5f6020820190508181035f830152611ca281611c69565b9050919050565b5f81519050611cb7816117a1565b92915050565b5f60208284031215611cd257611cd1611743565b5b5f611cdf84828501611ca9565b91505092915050565b7f546f6b656e206e6f74206465706c6f79656400000000000000000000000000005f82015250565b5f611d1c601283611b61565b9150611d2782611ce8565b602082019050919050565b5f6020820190508181035f830152611d4981611d10565b9050919050565b5f8160601b9050919050565b5f611d6682611d50565b9050919050565b5f611d7782611d5c565b9050919050565b611d8f611d8a82611766565b611d6d565b82525050565b5f819050919050565b611daf611daa82611712565b611d95565b82525050565b5f611dc08287611d7e565b601482019150611dd08286611d9e565b602082019150611de08285611d7e565b601482019150611df08284611d9e565b60208201915081905095945050505050565b7f4f6e6c79207369676e6572732063616e2063616c6c20746869732066756e63745f8201527f696f6e0000000000000000000000000000000000000000000000000000000000602082015250565b5f611e5c602383611b61565b9150611e6782611e02565b604082019050919050565b5f6020820190508181035f830152611e8981611e50565b9050919050565b7f5472616e73616374696f6e20616c7265616479206578656375746564000000005f82015250565b5f611ec4601c83611b61565b9150611ecf82611e90565b602082019050919050565b5f6020820190508181035f830152611ef181611eb8565b9050919050565b7f416c7265616479207369676e65640000000000000000000000000000000000005f82015250565b5f611f2c600e83611b61565b9150611f3782611ef8565b602082019050919050565b5f6020820190508181035f830152611f5981611f20565b9050919050565b7f4e487b71000000000000000000000000000000000000000000000000000000005f52601160045260245ffd5b5f611f9782611712565b91507fffffffffffffffffffffffffffffffffffffffffffffffffffffffffffffffff8203611fc957611fc8611f60565b5b600182019050919050565b7f5472616e73616374696f6e206e6f7420666f756e6400000000000000000000005f82015250565b5f612008601583611b61565b915061201382611fd4565b602082019050919050565b5f6020820190508181035f83015261203581611ffc565b9050919050565b5f61204682611712565b915061205183611712565b925082820190508082111561206957612068611f60565b5b92915050565b5f6060820190506120825f830186611a4c565b61208f6020830185611a4c565b61209c604083018461171b565b949350505050565b6120ad816118b0565b81146120b7575f5ffd5b50565b5f815190506120c8816120a4565b92915050565b5f602082840312156120e3576120e2611743565b5b5f6120f0848285016120ba565b91505092915050565b7f4e6f7420656e6f756768207369676e61747572657300000000000000000000005f82015250565b5f61212d601583611b61565b9150612138826120f9565b602082019050919050565b5f6020820190508181035f83015261215a81612121565b9050919050565b7f4e6f7420656e6f7567682062616c616e636500000000000000000000000000005f82015250565b5f612195601283611b61565b91506121a082612161565b602082019050919050565b5f6020820190508181035f8301526121c281612189565b9050919050565b5f81905092915050565b50565b5f6121e15f836121c9565b91506121ec826121d3565b5f82019050919050565b5f612200826121d6565b9150819050919050565b7f457865637574696f6e206661696c6564000000000000000000000000000000005f82015250565b5f61223e601083611b61565b91506122498261220a565b602082019050919050565b5f6020820190508181035f83015261226b81612232565b9050919050565b5f6040820190506122855f830185611a4c565b612292602083018461171b565b9392505050565b5f6020820190506122ac5f830184611a4c565b9291505056fea26469706673582212207b90873697782066c79284299128ae5e97059b407b7c1794ba8b9c54a313bd2864736f6c634300081e0033","linkReferences":{}},"methodIdentifiers":{"deposit(bytes32)":"b214faa5","deposit(bytes32,address,uint256)":"d954863c","execute(bytes32)":"e751f271","getBalance()":"12065fe0","getBalance(address)":"f8b2cb4f","getBalance(bytes32)":"8e739461","getTransaction(bytes32)":"4aae13ca","minSignatures()":"238acaa2","propose(address,uint256)":"589de5df","propose(address,uint256,address)":"32fdf104","sign(bytes32)":"799cd333","signers(address)":"736c0d5b","transactionSigners(bytes32,address)":"5c9e45a5","transactions(bytes32)":"642f2eaf"},"id":27}