{"abi":[{"type":"constructor","inputs":[{"name":"_recoveryAddresses","type":"address[]","internalType":"address[]"},{"name":"_quorum","type":"uint256","internalType":"uint256"}],"stateMutability":"nonpayable"},{"type":"function","name":"addRecoveryAddress","inputs":[{"name":"_recoveryAddress","type":"address","internalType":"address"}],"outputs":[],"stateMutability":"nonpayable"},{"type":"function","name":"addToken","inputs":[{"name":"_token","type":"address","internalType":"address"}],"outputs":[],"stateMutability":"nonpayable"},{"type":"function","name":"addTokens","inputs":[{"name":"_tokens","type":"address[]","internalType":"address[]"}],"outputs":[],"stateMutability":"nonpayable"},{"type":"function","name":"addressToRecoverVotes","inputs":[{"name":"","type":"address","internalType":"address"},{"name":"","type":"address","internalType":"address"}],"outputs":[{"name":"","type":"bool","internalType":"bool"}],"stateMutability":"view"},{"type":"function","name":"addressToRecoverVotesCount","inputs":[{"name":"","type":"address","internalType":"address"}],"outputs":[{"name":"","type":"uint256","internalType":"uint256"}],"stateMutability":"view"},{"type":"function","name":"owner","inputs":[],"outputs":[{"name":"","type":"address","internalType":"address"}],"stateMutability":"view"},{"type":"function","name":"quorum","inputs":[],"outputs":[{"name":"","type":"uint256","internalType":"uint256"}],"stateMutability":"view"},{"type":"function","name":"recover","inputs":[{"name":"_recoverTo","type":"address","internalType":"address"}],"outputs":[],"stateMutability":"nonpayable"},{"type":"function","name":"recovered","inputs":[],"outputs":[{"name":"","type":"bool","internalType":"bool"}],"stateMutability":"view"},{"type":"function","name":"recoveryAddressCount","inputs":[],"outputs":[{"name":"","type":"uint256","internalType":"uint256"}],"stateMutability":"view"},{"type":"function","name":"recoveryAddresses","inputs":[{"name":"","type":"address","internalType":"address"}],"outputs":[{"name":"","type":"bool","internalType":"bool"}],"stateMutability":"view"},{"type":"function","name":"removeRecoveryAddress","inputs":[{"name":"_recoveryAddress","type":"address","internalType":"address"}],"outputs":[],"stateMutability":"nonpayable"},{"type":"function","name":"renounceOwnership","inputs":[],"outputs":[],"stateMutability":"nonpayable"},{"type":"function","name":"setQuorum","inputs":[{"name":"_quorum","type":"uint256","internalType":"uint256"}],"outputs":[],"stateMutability":"nonpayable"},{"type":"function","name":"tokenMap","inputs":[{"name":"","type":"address","internalType":"address"}],"outputs":[{"name":"","type":"bool","internalType":"bool"}],"stateMutability":"view"},{"type":"function","name":"tokens","inputs":[{"name":"","type":"uint256","internalType":"uint256"}],"outputs":[{"name":"","type":"address","internalType":"address"}],"stateMutability":"view"},{"type":"function","name":"transferOwnership","inputs":[{"name":"newOwner","type":"address","internalType":"address"}],"outputs":[],"stateMutability":"nonpayable"},{"type":"event","name":"OwnershipTransferred","inputs":[{"name":"previousOwner","type":"address","indexed":true,"internalType":"address"},{"name":"newOwner","type":"address","indexed":true,"internalType":"address"}],"anonymous":false},{"type":"error","name":"OwnableInvalidOwner","inputs":[{"name":"owner","type":"address","internalType":"address"}]},{"type":"error","name":"OwnableUnauthorizedAccount","inputs":[{"name":"account","type":"address","internalType":"address"}]}],"bytecode":{"object":"0x60a060405234801561000f575f5ffd5b5060405161205c38038061205c8339818101604052810190610031919061045d565b335f73ffffffffffffffffffffffffffffffffffffffff168173ffffffffffffffffffffffffffffffffffffffff16036100a2575f6040517f1e4fbdf700000000000000000000000000000000000000000000000000000000815260040161009991906104c6565b60405180910390fd5b6100b1816101ae60201b60201c565b503373ffffffffffffffffffffffffffffffffffffffff1660808173ffffffffffffffffffffffffffffffffffffffff16815250505f5f90505b8251811015610186576001805f85848151811061010b5761010a6104df565b5b602002602001015173ffffffffffffffffffffffffffffffffffffffff1673ffffffffffffffffffffffffffffffffffffffff1681526020019081526020015f205f6101000a81548160ff02191690831515021790555060025f81548092919061017490610539565b919050555080806001019150506100eb565b50806003819055505f60045f6101000a81548160ff0219169083151502179055505050610580565b5f5f5f9054906101000a900473ffffffffffffffffffffffffffffffffffffffff169050815f5f6101000a81548173ffffffffffffffffffffffffffffffffffffffff021916908373ffffffffffffffffffffffffffffffffffffffff1602179055508173ffffffffffffffffffffffffffffffffffffffff168173ffffffffffffffffffffffffffffffffffffffff167f8be0079c531659141344cd1fd0a4f28419497f9722a3daafe3b4186f6b6457e060405160405180910390a35050565b5f604051905090565b5f5ffd5b5f5ffd5b5f5ffd5b5f601f19601f8301169050919050565b7f4e487b71000000000000000000000000000000000000000000000000000000005f52604160045260245ffd5b6102ca82610284565b810181811067ffffffffffffffff821117156102e9576102e8610294565b5b80604052505050565b5f6102fb61026f565b905061030782826102c1565b919050565b5f67ffffffffffffffff82111561032657610325610294565b5b602082029050602081019050919050565b5f5ffd5b5f73ffffffffffffffffffffffffffffffffffffffff82169050919050565b5f6103648261033b565b9050919050565b6103748161035a565b811461037e575f5ffd5b50565b5f8151905061038f8161036b565b92915050565b5f6103a76103a28461030c565b6102f2565b905080838252602082019050602084028301858111156103ca576103c9610337565b5b835b818110156103f357806103df8882610381565b8452602084019350506020810190506103cc565b5050509392505050565b5f82601f83011261041157610410610280565b5b8151610421848260208601610395565b91505092915050565b5f819050919050565b61043c8161042a565b8114610446575f5ffd5b50565b5f8151905061045781610433565b92915050565b5f5f6040838503121561047357610472610278565b5b5f83015167ffffffffffffffff8111156104905761048f61027c565b5b61049c858286016103fd565b92505060206104ad85828601610449565b9150509250929050565b6104c08161035a565b82525050565b5f6020820190506104d95f8301846104b7565b92915050565b7f4e487b71000000000000000000000000000000000000000000000000000000005f52603260045260245ffd5b7f4e487b71000000000000000000000000000000000000000000000000000000005f52601160045260245ffd5b5f6105438261042a565b91507fffffffffffffffffffffffffffffffffffffffffffffffffffffffffffffffff82036105755761057461050c565b5b600182019050919050565b608051611aaf6105ad5f395f818161076b01528181610808015281816108bd01526109600152611aaf5ff3fe608060405234801561000f575f5ffd5b5060043610610108575f3560e01c8063715018a6116100a0578063a63089091161006f578063a6308909146102b4578063c1ba4e59146102d0578063d48bfca7146102ec578063f2fde38b14610308578063f5c86ec51461032457610108565b8063715018a6146102405780637e3bfa1d1461024a5780638da5cb5b146102665780638db6bfb31461028457610108565b8063298e9a27116100dc578063298e9a271461019457806346cde53f146101c45780634ae05c7d146101f45780634f64b2be1461021057610108565b80624aca6e1461010c5780630cd865ec1461013c5780630e78df61146101585780631703a01814610176575b5f5ffd5b61012660048036038101906101219190611360565b610342565b60405161013391906113a5565b60405180910390f35b61015660048036038101906101519190611360565b61035f565b005b6101606109f8565b60405161016d91906113a5565b60405180910390f35b61017e610a0a565b60405161018b91906113d6565b60405180910390f35b6101ae60048036038101906101a991906113ef565b610a10565b6040516101bb91906113a5565b60405180910390f35b6101de60048036038101906101d99190611360565b610a3a565b6040516101eb91906113a5565b60405180910390f35b61020e6004803603810190610209919061157d565b610a57565b005b61022a600480360381019061022591906115ee565b610c1f565b6040516102379190611628565b60405180910390f35b610248610c5a565b005b610264600480360381019061025f9190611360565b610c6d565b005b61026e610e0d565b60405161027b9190611628565b60405180910390f35b61029e60048036038101906102999190611360565b610e34565b6040516102ab91906113d6565b60405180910390f35b6102ce60048036038101906102c99190611360565b610e49565b005b6102ea60048036038101906102e591906115ee565b610f5d565b005b61030660048036038101906103019190611360565b610fbe565b005b610322600480360381019061031d9190611360565b61111c565b005b61032c6111a0565b60405161033991906113d6565b60405180910390f35b6005602052805f5260405f205f915054906101000a900460ff1681565b60015f3373ffffffffffffffffffffffffffffffffffffffff1673ffffffffffffffffffffffffffffffffffffffff1681526020019081526020015f205f9054906101000a900460ff166103e8576040517f08c379a00000000000000000000000000000000000000000000000000000000081526004016103df9061169b565b60405180910390fd5b60045f9054906101000a900460ff1615610437576040517f08c379a000000000000000000000000000000000000000000000000000000000815260040161042e90611703565b60405180910390fd5b5f73ffffffffffffffffffffffffffffffffffffffff168173ffffffffffffffffffffffffffffffffffffffff16036104a5576040517f08c379a000000000000000000000000000000000000000000000000000000000815260040161049c9061176b565b60405180910390fd5b60075f8273ffffffffffffffffffffffffffffffffffffffff1673ffffffffffffffffffffffffffffffffffffffff1681526020019081526020015f205f3373ffffffffffffffffffffffffffffffffffffffff1673ffffffffffffffffffffffffffffffffffffffff1681526020019081526020015f205f9054906101000a900460ff161561056a576040517f08c379a0000000000000000000000000000000000000000000000000000000008152600401610561906117d3565b60405180910390fd5b600160075f8373ffffffffffffffffffffffffffffffffffffffff1673ffffffffffffffffffffffffffffffffffffffff1681526020019081526020015f205f3373ffffffffffffffffffffffffffffffffffffffff1673ffffffffffffffffffffffffffffffffffffffff1681526020019081526020015f205f6101000a81548160ff02191690831515021790555060085f8273ffffffffffffffffffffffffffffffffffffffff1673ffffffffffffffffffffffffffffffffffffffff1681526020019081526020015f205f8154809291906106479061181e565b919050555060035460085f8373ffffffffffffffffffffffffffffffffffffffff1673ffffffffffffffffffffffffffffffffffffffff1681526020019081526020015f2054106109f557600160045f6101000a81548160ff0219169083151502179055505f5f90505b6006805490508110156109f3575f600682815481106106d3576106d2611865565b5b905f5260205f20015f9054906101000a900473ffffffffffffffffffffffffffffffffffffffff16905060055f8273ffffffffffffffffffffffffffffffffffffffff1673ffffffffffffffffffffffffffffffffffffffff1681526020019081526020015f205f9054906101000a900460ff16156109e5575f8173ffffffffffffffffffffffffffffffffffffffff1663dd62ed3e7f0000000000000000000000000000000000000000000000000000000000000000306040518363ffffffff1660e01b81526004016107a8929190611892565b602060405180830381865afa1580156107c3573d5f5f3e3d5ffd5b505050506040513d601f19601f820116820180604052508101906107e791906118cd565b90505f8273ffffffffffffffffffffffffffffffffffffffff166370a082317f00000000000000000000000000000000000000000000000000000000000000006040518263ffffffff1660e01b81526004016108439190611628565b602060405180830381865afa15801561085e573d5f5f3e3d5ffd5b505050506040513d601f19601f8201168201806040525081019061088291906118cd565b90505f8211801561089257505f81115b156109e25780821115610942578273ffffffffffffffffffffffffffffffffffffffff166323b872dd7f000000000000000000000000000000000000000000000000000000000000000087846040518463ffffffff1660e01b81526004016108fc939291906118f8565b6020604051808303815f875af1158015610918573d5f5f3e3d5ffd5b505050506040513d601f19601f8201168201806040525081019061093c9190611957565b506109e1565b8273ffffffffffffffffffffffffffffffffffffffff166323b872dd7f000000000000000000000000000000000000000000000000000000000000000087856040518463ffffffff1660e01b815260040161099f939291906118f8565b6020604051808303815f875af11580156109bb573d5f5f3e3d5ffd5b505050506040513d601f19601f820116820180604052508101906109df9190611957565b505b5b50505b5080806001019150506106b1565b505b50565b60045f9054906101000a900460ff1681565b60035481565b6007602052815f5260405f20602052805f5260405f205f915091509054906101000a900460ff1681565b6001602052805f5260405f205f915054906101000a900460ff1681565b610a5f6111a6565b60045f9054906101000a900460ff1615610aae576040517f08c379a0000000000000000000000000000000000000000000000000000000008152600401610aa590611703565b60405180910390fd5b5f5f90505b8151811015610c1b5760055f838381518110610ad257610ad1611865565b5b602002602001015173ffffffffffffffffffffffffffffffffffffffff1673ffffffffffffffffffffffffffffffffffffffff1681526020019081526020015f205f9054906101000a900460ff16610c0e57600160055f848481518110610b3c57610b3b611865565b5b602002602001015173ffffffffffffffffffffffffffffffffffffffff1673ffffffffffffffffffffffffffffffffffffffff1681526020019081526020015f205f6101000a81548160ff0219169083151502179055506006828281518110610ba857610ba7611865565b5b6020026020010151908060018154018082558091505060019003905f5260205f20015f9091909190916101000a81548173ffffffffffffffffffffffffffffffffffffffff021916908373ffffffffffffffffffffffffffffffffffffffff1602179055505b8080600101915050610ab3565b5050565b60068181548110610c2e575f80fd5b905f5260205f20015f915054906101000a900473ffffffffffffffffffffffffffffffffffffffff1681565b610c626111a6565b610c6b5f61122d565b565b610c756111a6565b60045f9054906101000a900460ff1615610cc4576040517f08c379a0000000000000000000000000000000000000000000000000000000008152600401610cbb90611703565b60405180910390fd5b60015f8273ffffffffffffffffffffffffffffffffffffffff1673ffffffffffffffffffffffffffffffffffffffff1681526020019081526020015f205f9054906101000a900460ff1615610e0a5760025f815480929190610d2590611982565b91905055506003546002541015610d71576040517f08c379a0000000000000000000000000000000000000000000000000000000008152600401610d68906119f3565b60405180910390fd5b5f60025411610db5576040517f08c379a0000000000000000000000000000000000000000000000000000000008152600401610dac90611a5b565b60405180910390fd5b5f60015f8373ffffffffffffffffffffffffffffffffffffffff1673ffffffffffffffffffffffffffffffffffffffff1681526020019081526020015f205f6101000a81548160ff0219169083151502179055505b50565b5f5f5f9054906101000a900473ffffffffffffffffffffffffffffffffffffffff16905090565b6008602052805f5260405f205f915090505481565b610e516111a6565b60045f9054906101000a900460ff1615610ea0576040517f08c379a0000000000000000000000000000000000000000000000000000000008152600401610e9790611703565b60405180910390fd5b60015f8273ffffffffffffffffffffffffffffffffffffffff1673ffffffffffffffffffffffffffffffffffffffff1681526020019081526020015f205f9054906101000a900460ff16610f5a576001805f8373ffffffffffffffffffffffffffffffffffffffff1673ffffffffffffffffffffffffffffffffffffffff1681526020019081526020015f205f6101000a81548160ff02191690831515021790555060025f815480929190610f549061181e565b91905055505b50565b610f656111a6565b60045f9054906101000a900460ff1615610fb4576040517f08c379a0000000000000000000000000000000000000000000000000000000008152600401610fab90611703565b60405180910390fd5b8060038190555050565b610fc66111a6565b60045f9054906101000a900460ff1615611015576040517f08c379a000000000000000000000000000000000000000000000000000000000815260040161100c90611703565b60405180910390fd5b60055f8273ffffffffffffffffffffffffffffffffffffffff1673ffffffffffffffffffffffffffffffffffffffff1681526020019081526020015f205f9054906101000a900460ff1661111957600160055f8373ffffffffffffffffffffffffffffffffffffffff1673ffffffffffffffffffffffffffffffffffffffff1681526020019081526020015f205f6101000a81548160ff021916908315150217905550600681908060018154018082558091505060019003905f5260205f20015f9091909190916101000a81548173ffffffffffffffffffffffffffffffffffffffff021916908373ffffffffffffffffffffffffffffffffffffffff1602179055505b50565b6111246111a6565b5f73ffffffffffffffffffffffffffffffffffffffff168173ffffffffffffffffffffffffffffffffffffffff1603611194575f6040517f1e4fbdf700000000000000000000000000000000000000000000000000000000815260040161118b9190611628565b60405180910390fd5b61119d8161122d565b50565b60025481565b6111ae6112ee565b73ffffffffffffffffffffffffffffffffffffffff166111cc610e0d565b73ffffffffffffffffffffffffffffffffffffffff161461122b576111ef6112ee565b6040517f118cdaa70000000000000000000000000000000000000000000000000000000081526004016112229190611628565b60405180910390fd5b565b5f5f5f9054906101000a900473ffffffffffffffffffffffffffffffffffffffff169050815f5f6101000a81548173ffffffffffffffffffffffffffffffffffffffff021916908373ffffffffffffffffffffffffffffffffffffffff1602179055508173ffffffffffffffffffffffffffffffffffffffff168173ffffffffffffffffffffffffffffffffffffffff167f8be0079c531659141344cd1fd0a4f28419497f9722a3daafe3b4186f6b6457e060405160405180910390a35050565b5f33905090565b5f604051905090565b5f5ffd5b5f5ffd5b5f73ffffffffffffffffffffffffffffffffffffffff82169050919050565b5f61132f82611306565b9050919050565b61133f81611325565b8114611349575f5ffd5b50565b5f8135905061135a81611336565b92915050565b5f60208284031215611375576113746112fe565b5b5f6113828482850161134c565b91505092915050565b5f8115159050919050565b61139f8161138b565b82525050565b5f6020820190506113b85f830184611396565b92915050565b5f819050919050565b6113d0816113be565b82525050565b5f6020820190506113e95f8301846113c7565b92915050565b5f5f60408385031215611405576114046112fe565b5b5f6114128582860161134c565b92505060206114238582860161134c565b9150509250929050565b5f5ffd5b5f601f19601f8301169050919050565b7f4e487b71000000000000000000000000000000000000000000000000000000005f52604160045260245ffd5b61147782611431565b810181811067ffffffffffffffff8211171561149657611495611441565b5b80604052505050565b5f6114a86112f5565b90506114b4828261146e565b919050565b5f67ffffffffffffffff8211156114d3576114d2611441565b5b602082029050602081019050919050565b5f5ffd5b5f6114fa6114f5846114b9565b61149f565b9050808382526020820190506020840283018581111561151d5761151c6114e4565b5b835b818110156115465780611532888261134c565b84526020840193505060208101905061151f565b5050509392505050565b5f82601f8301126115645761156361142d565b5b81356115748482602086016114e8565b91505092915050565b5f60208284031215611592576115916112fe565b5b5f82013567ffffffffffffffff8111156115af576115ae611302565b5b6115bb84828501611550565b91505092915050565b6115cd816113be565b81146115d7575f5ffd5b50565b5f813590506115e8816115c4565b92915050565b5f60208284031215611603576116026112fe565b5b5f611610848285016115da565b91505092915050565b61162281611325565b82525050565b5f60208201905061163b5f830184611619565b92915050565b5f82825260208201905092915050565b7f4e6f742061207265636f766572792061646472657373000000000000000000005f82015250565b5f611685601683611641565b915061169082611651565b602082019050919050565b5f6020820190508181035f8301526116b281611679565b9050919050565b7f416c7265616479207265636f76657265640000000000000000000000000000005f82015250565b5f6116ed601183611641565b91506116f8826116b9565b602082019050919050565b5f6020820190508181035f83015261171a816116e1565b9050919050565b7f496e76616c6964207265636f76657279206164647265737300000000000000005f82015250565b5f611755601883611641565b915061176082611721565b602082019050919050565b5f6020820190508181035f83015261178281611749565b9050919050565b7f416c726561647920766f746564000000000000000000000000000000000000005f82015250565b5f6117bd600d83611641565b91506117c882611789565b602082019050919050565b5f6020820190508181035f8301526117ea816117b1565b9050919050565b7f4e487b71000000000000000000000000000000000000000000000000000000005f52601160045260245ffd5b5f611828826113be565b91507fffffffffffffffffffffffffffffffffffffffffffffffffffffffffffffffff820361185a576118596117f1565b5b600182019050919050565b7f4e487b71000000000000000000000000000000000000000000000000000000005f52603260045260245ffd5b5f6040820190506118a55f830185611619565b6118b26020830184611619565b9392505050565b5f815190506118c7816115c4565b92915050565b5f602082840312156118e2576118e16112fe565b5b5f6118ef848285016118b9565b91505092915050565b5f60608201905061190b5f830186611619565b6119186020830185611619565b61192560408301846113c7565b949350505050565b6119368161138b565b8114611940575f5ffd5b50565b5f815190506119518161192d565b92915050565b5f6020828403121561196c5761196b6112fe565b5b5f61197984828501611943565b91505092915050565b5f61198c826113be565b91505f820361199e5761199d6117f1565b5b600182039050919050565b7f51756f72756d206e6f74206d65740000000000000000000000000000000000005f82015250565b5f6119dd600e83611641565b91506119e8826119a9565b602082019050919050565b5f6020820190508181035f830152611a0a816119d1565b9050919050565b7f4e6f207265636f766572792061646472657373657300000000000000000000005f82015250565b5f611a45601583611641565b9150611a5082611a11565b602082019050919050565b5f6020820190508181035f830152611a7281611a39565b905091905056fea26469706673582212205ec1ef2bebcd9aa0a3451c512c71fd21e7aae0f967967c207db1e74d7029b9c564736f6c634300081e0033","linkReferences":{}},"methodIdentifiers":{"addRecoveryAddress(address)":"a6308909","addToken(address)":"d48bfca7","addTokens(address[])":"4ae05c7d","addressToRecoverVotes(address,address)":"298e9a27","addressToRecoverVotesCount(address)":"8db6bfb3","owner()":"8da5cb5b","quorum()":"1703a018","recover(address)":"0cd865ec","recovered()":"0e78df61","recoveryAddressCount()":"f5c86ec5","recoveryAddresses(address)":"46cde53f","removeRecoveryAddress(address)":"7e3bfa1d","renounceOwnership()":"715018a6","setQuorum(uint256)":"c1ba4e59","tokenMap(address)":"004aca6e","tokens(uint256)":"4f64b2be","transferOwnership(address)":"f2fde38b"},"id":29}