{"abi":[{"type":"constructor","inputs":[{"name":"_signers","type":"address[]","internalType":"address[]"},{"name":"_minSignatures","type":"uint256","internalType":"uint256"}],"stateMutability":"nonpayable"},{"type":"function","name":"deposit","inputs":[{"name":"txHash","type":"bytes32","internalType":"bytes32"}],"outputs":[],"stateMutability":"payable"},{"type":"function","name":"execute","inputs":[{"name":"txHash","type":"bytes32","internalType":"bytes32"}],"outputs":[],"stateMutability":"nonpayable"},{"type":"function","name":"getBalance","inputs":[],"outputs":[{"name":"","type":"uint256","internalType":"uint256"}],"stateMutability":"view"},{"type":"function","name":"minSignatures","inputs":[],"outputs":[{"name":"","type":"uint256","internalType":"uint256"}],"stateMutability":"view"},{"type":"function","name":"propose","inputs":[{"name":"to","type":"address","internalType":"address"},{"name":"amount","type":"uint256","internalType":"uint256"}],"outputs":[{"name":"txHash","type":"bytes32","internalType":"bytes32"}],"stateMutability":"nonpayable"},{"type":"function","name":"sign","inputs":[{"name":"txHash","type":"bytes32","internalType":"bytes32"}],"outputs":[],"stateMutability":"nonpayable"},{"type":"function","name":"signers","inputs":[{"name":"","type":"address","internalType":"address"}],"outputs":[{"name":"","type":"bool","internalType":"bool"}],"stateMutability":"view"},{"type":"function","name":"transactionSigners","inputs":[{"name":"","type":"bytes32","internalType":"bytes32"},{"name":"","type":"address","internalType":"address"}],"outputs":[{"name":"","type":"bool","internalType":"bool"}],"stateMutability":"view"},{"type":"function","name":"transactions","inputs":[{"name":"","type":"bytes32","internalType":"bytes32"}],"outputs":[{"name":"to","type":"address","internalType":"address"},{"name":"amount","type":"uint256","internalType":"uint256"},{"name":"proposer","type":"address","internalType":"address"},{"name":"timestamp","type":"uint256","internalType":"uint256"},{"name":"signedCount","type":"uint256","internalType":"uint256"},{"name":"executed","type":"bool","internalType":"bool"},{"name":"balance","type":"uint256","internalType":"uint256"}],"stateMutability":"view"}],"bytecode":{"object":"0x608060405234801561000f575f80fd5b50604051611a0b380380611a0b8339818101604052810190610031919061037d565b5f825111610074576040517f08c379a000000000000000000000000000000000000000000000000000000000815260040161006b90610431565b60405180910390fd5b5f81116100b6576040517f08c379a00000000000000000000000000000000000000000000000000000000081526004016100ad906104bf565b60405180910390fd5b81518111156100fa576040517f08c379a00000000000000000000000000000000000000000000000000000000081526004016100f19061054d565b60405180910390fd5b5f5b82518110156101805760015f8085848151811061011c5761011b61056b565b5b602002602001015173ffffffffffffffffffffffffffffffffffffffff1673ffffffffffffffffffffffffffffffffffffffff1681526020019081526020015f205f6101000a81548160ff02191690831515021790555080806001019150506100fc565b50806001819055505050610598565b5f604051905090565b5f80fd5b5f80fd5b5f80fd5b5f601f19601f8301169050919050565b7f4e487b71000000000000000000000000000000000000000000000000000000005f52604160045260245ffd5b6101ea826101a4565b810181811067ffffffffffffffff82111715610209576102086101b4565b5b80604052505050565b5f61021b61018f565b905061022782826101e1565b919050565b5f67ffffffffffffffff821115610246576102456101b4565b5b602082029050602081019050919050565b5f80fd5b5f73ffffffffffffffffffffffffffffffffffffffff82169050919050565b5f6102848261025b565b9050919050565b6102948161027a565b811461029e575f80fd5b50565b5f815190506102af8161028b565b92915050565b5f6102c76102c28461022c565b610212565b905080838252602082019050602084028301858111156102ea576102e9610257565b5b835b8181101561031357806102ff88826102a1565b8452602084019350506020810190506102ec565b5050509392505050565b5f82601f830112610331576103306101a0565b5b81516103418482602086016102b5565b91505092915050565b5f819050919050565b61035c8161034a565b8114610366575f80fd5b50565b5f8151905061037781610353565b92915050565b5f806040838503121561039357610392610198565b5b5f83015167ffffffffffffffff8111156103b0576103af61019c565b5b6103bc8582860161031d565b92505060206103cd85828601610369565b9150509250929050565b5f82825260208201905092915050565b7f4d7573742068617665206174206c65617374206f6e65207369676e65720000005f82015250565b5f61041b601d836103d7565b9150610426826103e7565b602082019050919050565b5f6020820190508181035f8301526104488161040f565b9050919050565b7f4d696e207369676e617475726573206d757374206265206772656174657220745f8201527f68616e2030000000000000000000000000000000000000000000000000000000602082015250565b5f6104a96025836103d7565b91506104b48261044f565b604082019050919050565b5f6020820190508181035f8301526104d68161049d565b9050919050565b7f4d696e207369676e6174757265732063616e6e6f7420657863656564207369675f8201527f6e657220636f756e740000000000000000000000000000000000000000000000602082015250565b5f6105376029836103d7565b9150610542826104dd565b604082019050919050565b5f6020820190508181035f8301526105648161052b565b9050919050565b7f4e487b71000000000000000000000000000000000000000000000000000000005f52603260045260245ffd5b611466806105a55f395ff3fe608060405260043610610085575f3560e01c8063642f2eaf11610058578063642f2eaf14610155578063736c0d5b14610197578063799cd333146101d3578063b214faa5146101fb578063e751f2711461021757610085565b806312065fe014610089578063238acaa2146100b3578063589de5df146100dd5780635c9e45a514610119575b5f80fd5b348015610094575f80fd5b5061009d61023f565b6040516100aa9190610bf9565b60405180910390f35b3480156100be575f80fd5b506100c7610246565b6040516100d49190610bf9565b60405180910390f35b3480156100e8575f80fd5b5061010360048036038101906100fe9190610c9a565b61024c565b6040516101109190610cf0565b60405180910390f35b348015610124575f80fd5b5061013f600480360381019061013a9190610d33565b6104c7565b60405161014c9190610d8b565b60405180910390f35b348015610160575f80fd5b5061017b60048036038101906101769190610da4565b6104f1565b60405161018e9796959493929190610dde565b60405180910390f35b3480156101a2575f80fd5b506101bd60048036038101906101b89190610e4b565b610579565b6040516101ca9190610d8b565b60405180910390f35b3480156101de575f80fd5b506101f960048036038101906101f49190610da4565b610595565b005b61021560048036038101906102109190610da4565b6107a7565b005b348015610222575f80fd5b5061023d60048036038101906102389190610da4565b610875565b005b5f47905090565b60015481565b5f805f3373ffffffffffffffffffffffffffffffffffffffff1673ffffffffffffffffffffffffffffffffffffffff1681526020019081526020015f205f9054906101000a900460ff166102d5576040517f08c379a00000000000000000000000000000000000000000000000000000000081526004016102cc90610ed0565b60405180910390fd5b5f73ffffffffffffffffffffffffffffffffffffffff168373ffffffffffffffffffffffffffffffffffffffff1603610343576040517f08c379a000000000000000000000000000000000000000000000000000000000815260040161033a90610f38565b60405180910390fd5b5f6040518060e001604052808573ffffffffffffffffffffffffffffffffffffffff1681526020018481526020013373ffffffffffffffffffffffffffffffffffffffff1681526020014281526020015f81526020015f151581526020015f815250905083833383606001516040516020016103c29493929190610fbb565b6040516020818303038152906040528051906020012091508060025f8481526020019081526020015f205f820151815f015f6101000a81548173ffffffffffffffffffffffffffffffffffffffff021916908373ffffffffffffffffffffffffffffffffffffffff160217905550602082015181600101556040820151816002015f6101000a81548173ffffffffffffffffffffffffffffffffffffffff021916908373ffffffffffffffffffffffffffffffffffffffff160217905550606082015181600301556080820151816004015560a0820151816005015f6101000a81548160ff02191690831515021790555060c082015181600601559050505092915050565b6003602052815f5260405f20602052805f5260405f205f915091509054906101000a900460ff1681565b6002602052805f5260405f205f91509050805f015f9054906101000a900473ffffffffffffffffffffffffffffffffffffffff1690806001015490806002015f9054906101000a900473ffffffffffffffffffffffffffffffffffffffff1690806003015490806004015490806005015f9054906101000a900460ff16908060060154905087565b5f602052805f5260405f205f915054906101000a900460ff1681565b60025f8281526020019081526020015f206005015f9054906101000a900460ff16156105f6576040517f08c379a00000000000000000000000000000000000000000000000000000000081526004016105ed90611052565b60405180910390fd5b60035f8281526020019081526020015f205f3373ffffffffffffffffffffffffffffffffffffffff1673ffffffffffffffffffffffffffffffffffffffff1681526020019081526020015f205f9054906101000a900460ff161561068f576040517f08c379a0000000000000000000000000000000000000000000000000000000008152600401610686906110ba565b60405180910390fd5b5f803373ffffffffffffffffffffffffffffffffffffffff1673ffffffffffffffffffffffffffffffffffffffff1681526020019081526020015f205f9054906101000a900460ff16610717576040517f08c379a000000000000000000000000000000000000000000000000000000000815260040161070e90611122565b60405180910390fd5b600160035f8381526020019081526020015f205f3373ffffffffffffffffffffffffffffffffffffffff1673ffffffffffffffffffffffffffffffffffffffff1681526020019081526020015f205f6101000a81548160ff02191690831515021790555060025f8281526020019081526020015f206004015f81548092919061079f9061116d565b919050555050565b5f73ffffffffffffffffffffffffffffffffffffffff1660025f8381526020019081526020015f206002015f9054906101000a900473ffffffffffffffffffffffffffffffffffffffff1673ffffffffffffffffffffffffffffffffffffffff1603610848576040517f08c379a000000000000000000000000000000000000000000000000000000000815260040161083f906111fe565b60405180910390fd5b3460025f8381526020019081526020015f206006015f82825461086b919061121c565b9250508190555050565b5f73ffffffffffffffffffffffffffffffffffffffff1660025f8381526020019081526020015f206002015f9054906101000a900473ffffffffffffffffffffffffffffffffffffffff1673ffffffffffffffffffffffffffffffffffffffff1603610916576040517f08c379a000000000000000000000000000000000000000000000000000000000815260040161090d906111fe565b60405180910390fd5b60015460025f8381526020019081526020015f2060040154101561096f576040517f08c379a000000000000000000000000000000000000000000000000000000000815260040161096690611299565b60405180910390fd5b60025f8281526020019081526020015f206001015460025f8381526020019081526020015f206006015410156109da576040517f08c379a00000000000000000000000000000000000000000000000000000000081526004016109d190611301565b60405180910390fd5b60025f8281526020019081526020015f206005015f9054906101000a900460ff1615610a3b576040517f08c379a0000000000000000000000000000000000000000000000000000000008152600401610a3290611052565b60405180910390fd5b5f803373ffffffffffffffffffffffffffffffffffffffff1673ffffffffffffffffffffffffffffffffffffffff1681526020019081526020015f205f9054906101000a900460ff16610ac3576040517f08c379a0000000000000000000000000000000000000000000000000000000008152600401610aba90611369565b60405180910390fd5b600160025f8381526020019081526020015f206005015f6101000a81548160ff0219169083151502179055505f60025f8381526020019081526020015f205f015f9054906101000a900473ffffffffffffffffffffffffffffffffffffffff1673ffffffffffffffffffffffffffffffffffffffff1660025f8481526020019081526020015f2060010154604051610b5a906113b4565b5f6040518083038185875af1925050503d805f8114610b94576040519150601f19603f3d011682016040523d82523d5f602084013e610b99565b606091505b5050905080610bdd576040517f08c379a0000000000000000000000000000000000000000000000000000000008152600401610bd490611412565b60405180910390fd5b5050565b5f819050919050565b610bf381610be1565b82525050565b5f602082019050610c0c5f830184610bea565b92915050565b5f80fd5b5f73ffffffffffffffffffffffffffffffffffffffff82169050919050565b5f610c3f82610c16565b9050919050565b610c4f81610c35565b8114610c59575f80fd5b50565b5f81359050610c6a81610c46565b92915050565b610c7981610be1565b8114610c83575f80fd5b50565b5f81359050610c9481610c70565b92915050565b5f8060408385031215610cb057610caf610c12565b5b5f610cbd85828601610c5c565b9250506020610cce85828601610c86565b9150509250929050565b5f819050919050565b610cea81610cd8565b82525050565b5f602082019050610d035f830184610ce1565b92915050565b610d1281610cd8565b8114610d1c575f80fd5b50565b5f81359050610d2d81610d09565b92915050565b5f8060408385031215610d4957610d48610c12565b5b5f610d5685828601610d1f565b9250506020610d6785828601610c5c565b9150509250929050565b5f8115159050919050565b610d8581610d71565b82525050565b5f602082019050610d9e5f830184610d7c565b92915050565b5f60208284031215610db957610db8610c12565b5b5f610dc684828501610d1f565b91505092915050565b610dd881610c35565b82525050565b5f60e082019050610df15f83018a610dcf565b610dfe6020830189610bea565b610e0b6040830188610dcf565b610e186060830187610bea565b610e256080830186610bea565b610e3260a0830185610d7c565b610e3f60c0830184610bea565b98975050505050505050565b5f60208284031215610e6057610e5f610c12565b5b5f610e6d84828501610c5c565b91505092915050565b5f82825260208201905092915050565b7f4f6e6c79207369676e6572732063616e2070726f706f736500000000000000005f82015250565b5f610eba601883610e76565b9150610ec582610e86565b602082019050919050565b5f6020820190508181035f830152610ee781610eae565b9050919050565b7f496e76616c6964207461726765742061646472657373000000000000000000005f82015250565b5f610f22601683610e76565b9150610f2d82610eee565b602082019050919050565b5f6020820190508181035f830152610f4f81610f16565b9050919050565b5f8160601b9050919050565b5f610f6c82610f56565b9050919050565b5f610f7d82610f62565b9050919050565b610f95610f9082610c35565b610f73565b82525050565b5f819050919050565b610fb5610fb082610be1565b610f9b565b82525050565b5f610fc68287610f84565b601482019150610fd68286610fa4565b602082019150610fe68285610f84565b601482019150610ff68284610fa4565b60208201915081905095945050505050565b7f5472616e73616374696f6e20616c7265616479206578656375746564000000005f82015250565b5f61103c601c83610e76565b915061104782611008565b602082019050919050565b5f6020820190508181035f83015261106981611030565b9050919050565b7f416c7265616479207369676e65640000000000000000000000000000000000005f82015250565b5f6110a4600e83610e76565b91506110af82611070565b602082019050919050565b5f6020820190508181035f8301526110d181611098565b9050919050565b7f4f6e6c79207369676e6572732063616e207369676e00000000000000000000005f82015250565b5f61110c601583610e76565b9150611117826110d8565b602082019050919050565b5f6020820190508181035f83015261113981611100565b9050919050565b7f4e487b71000000000000000000000000000000000000000000000000000000005f52601160045260245ffd5b5f61117782610be1565b91507fffffffffffffffffffffffffffffffffffffffffffffffffffffffffffffffff82036111a9576111a8611140565b5b600182019050919050565b7f5472616e73616374696f6e206e6f7420666f756e6400000000000000000000005f82015250565b5f6111e8601583610e76565b91506111f3826111b4565b602082019050919050565b5f6020820190508181035f830152611215816111dc565b9050919050565b5f61122682610be1565b915061123183610be1565b925082820190508082111561124957611248611140565b5b92915050565b7f4e6f7420656e6f756768207369676e61747572657300000000000000000000005f82015250565b5f611283601583610e76565b915061128e8261124f565b602082019050919050565b5f6020820190508181035f8301526112b081611277565b9050919050565b7f4e6f7420656e6f7567682062616c616e636500000000000000000000000000005f82015250565b5f6112eb601283610e76565b91506112f6826112b7565b602082019050919050565b5f6020820190508181035f830152611318816112df565b9050919050565b7f4f6e6c79207369676e6572732063616e206578656375746500000000000000005f82015250565b5f611353601883610e76565b915061135e8261131f565b602082019050919050565b5f6020820190508181035f83015261138081611347565b9050919050565b5f81905092915050565b50565b5f61139f5f83611387565b91506113aa82611391565b5f82019050919050565b5f6113be82611394565b9150819050919050565b7f457865637574696f6e206661696c6564000000000000000000000000000000005f82015250565b5f6113fc601083610e76565b9150611407826113c8565b602082019050919050565b5f6020820190508181035f830152611429816113f0565b905091905056fea2646970667358221220e4976755cd6087205c7b96fdaccb66c3d4218954ddc55742cbff631b353112ae64736f6c634300081a0033","linkReferences":{}},"methodIdentifiers":{"deposit(bytes32)":"b214faa5","execute(bytes32)":"e751f271","getBalance()":"12065fe0","minSignatures()":"238acaa2","propose(address,uint256)":"589de5df","sign(bytes32)":"799cd333","signers(address)":"736c0d5b","transactionSigners(bytes32,address)":"5c9e45a5","transactions(bytes32)":"642f2eaf"},"id":19}